:020000040800F2
:10000000C00700208901000809210008211B000801
:1000100005210008D5020008D122000800000000D8
:10002000000000000000000000000000F5210008B2
:10003000D9020008000000000D210008F921000885
:10004000A3010008A3010008A3010008A301000800
:10005000A3010008A3010008A3010008A3010008F0
:10006000A3010008A3010008A3010008A3010008E0
:10007000A3010008A3010008A3010008A3010008D0
:10008000A3010008A3010008A3010008A3010008C0
:10009000A3010008A3010008A3010008A3010008B0
:1000A000A3010008A3010008A3010008A3010008A0
:1000B000A3010008A3010008A3010008A301000890
:1000C000A3010008A3010008A3010008A301000880
:1000D000A3010008C5220008A3010008A30100082D
:1000E000DD020008A3010008A301000800F002F8E7
:1000F00000F03AF80AA090E8000C82448344AAF188
:100100000107DA4501D100F02FF8AFF2090EBAE885
:100110000F0013F0010F18BFFB1A43F0010318473B
:10012000D0230000F0230000103A24BF78C878C123
:10013000FAD8520724BF30C830C144BF04680C60ED
:10014000704700000023002400250026103A28BF35
:1001500078C1FBD8520728BF30C148BF0B60704739
:100160001FB51FBD10B510BD00F07AF81146FFF79E
:10017000F7FF02F0AFF800F098F803B4FFF7F2FFD2
:1001800003BC00F09FF80000094880470948004779
:10019000FEE7FEE7FEE7FEE7FEE7FEE7FEE7FEE737
:1001A000FEE7FEE704480549054A064B7047000094
:1001B000FD210008ED000008C0010020C00700205C
:1001C000C0030020C00300204FF000020429C0F04B
:1001D000128010F0030C00F01E80CCF1040CBCF176
:1001E000020F18BF00F8012BA8BF20F8022BA1EBCB
:1001F0000C0100F010B85FEAC17C24BF00F8012BAD
:1002000000F8012B48BF00F8012B7047704770477A
:1002100070474FF0000200B51346944696462039C9
:1002200022BFA0E80C50A0E80C50B1F12001BFF4AF
:10023000F7AF090728BFA0E80C5048BF0CC05DF815
:1002400004EB890028BF40F8042B08BF704748BF63
:1002500020F8022B11F0804F18BF00F8012B7047D7
:10026000754600F02BF8AE4605006946534620F06F
:100270000700854618B020B5FFF794FFBDE8204081
:100280004FF000064FF000074FF000084FF0000B52
:10029000AC46ACE8C009ACE8C009ACE8C009ACE8C1
:1002A000C00921F007018D46704710B50446AFF331
:1002B00000802046BDE81040FFF75FBF0048704750
:1002C0001000002001491820ABBEFEE72600020006
:1002D00070470000FEE70000704700004FF48060A8
:1002E00000F0B4B8014690F82100022816D1086841
:1002F000D1E90FC3026822F00E020260026822F008
:1003000001020260012000FA03F2CCF8042081F817
:1003100021000020002281F82020704704208863FB
:100320000120002281F820207047000080B590F85D
:100330002110022924D10268116821F00E011160F8
:100340002F211368C4F202018A4240F20401C4F270
:10035000020123F00103136016DD3023C4F202030F
:100360009A421DD04423C4F202039A421CD058235F
:10037000C4F202039A421DD14FF4803322E000BF41
:1003800004218163012080BD0823C4F202039A4244
:100390000ED01C23C4F202039A420BD1102311E0A9
:1003A0004FF480730EE000BF4FF480530AE000BFAB
:1003B000012307E001F1680C4FF08073624508BF2C
:1003C0004FF480130B60416B4FF48072028401B1D3
:1003D0008847002080BD0000B0B5044600F056F903
:1003E000054640F20000C2F200000078611C18BF10
:1003F000044400BF00F04AF9401BA042FAD3B0BD4C
:10040000B0F5806F18BF7047B0B540F2700540F28C
:10041000E404C2F20005C2F20004281D2146802235
:1004200001F05EFD40B200285EBFC0B20A21215437
:1004300040F2E40105F13000C2F2000180224FF6E3
:10044000FF73BDE8B04001F097BA000040F21441DC
:10045000C4F201010A68024214BF08607047FFF746
:10046000CFBF00002DE9F04F82B00E68002E00F0E3
:10047000038140F20C4C41F200424FF6FF7EC4F281
:10048000010CC4F20102042700240123C1F2100E62
:100490004FF0000A4FF00009904208BF0327009771
:1004A00045E000BF012704F00C030F229A402BEA1D
:1004B000020207FA03F34FEA9A051A4346F8252089
:1004C000D1F804B040F20045C4F201055FEACB3236
:1004D0002A6854BF22EA080242EA08022A606A68CF
:1004E0005FEA8B3354BF22EA080242EA08026A60DC
:1004F0005FEACB23AA6854BF22EA080242EA080254
:100500005FEA8B23AA60DCF800204FF0010354BFA0
:1005100022EA080242EA0802CCF800200E680AF13A
:10052000010A36FA0AF204F1040400F0A58003FA85
:100530000AF816EA080FF1D04E68764512DC122E42
:1005400056D8DFE806F0350B4549555555555555F4
:10055000555555555555554D510000BFD1F80C9086
:1005600046E000BF4FF6FF72C1F2210296420FDC57
:100570000022C1F2110296421AD00022C1F21202E8
:10058000964215D00022C1F22102964210D02FE0EF
:100590000022C1F2220296420AD00022C1F23102A8
:1005A000964205D00022C1F23202964220D100BF0D
:1005B0008A684AB1012A14BFC0F81480C0F81080BC
:1005C0004FF0080914E000BF4FF0040910E000BF2D
:1005D000CA6802F108090BE04FF0000908E000BF0B
:1005E000CA6802F1040903E0CA6802F10C0900BFFD
:1005F00022460646BAF1080F24BF203A043637686F
:100600000F25954027EA050509FA02F22A433260D0
:10061000CA79D2067FF582AF41F21803C4F2020311
:100620001A6842F001021A601A6802F0010201928F
:10063000019A40F20042C4F20102A2F57E762AF04D
:10064000030256F802B040F60002C4F201029042E2
:1006500010D040F60042C4F2010290423FF422AFB3
:1006600041F20002C4F20102009F904208BF02273B
:1006700019E700BF002716E702B0BDE8F08F0000C1
:10068000002A08BF090401617047000040F2BC1055
:10069000C2F200000068704740F2000040F2BC1156
:1006A000C2F20000C2F2000100780A68104408603B
:1006B0007047000080B542F20000C4F202000168F9
:1006C00041F010010160032000F08EF80F2000F0CF
:1006D00005F800F027F8002080BD000070B540F25A
:1006E0000006C2F2000640F208013278C2F20001B0
:1006F0004FF47A730968B3FBF2F20446B1FBF2F1EE
:10070000084600F02FFF0F2C4FF0010508D838B92C
:100710004FF0FF3021460022002500F039F87460C8
:10072000284670BD82B041F21800C4F20200016890
:10073000022241F001010160016801F00101019113
:100740000199416841F080514160406800F080505B
:10075000009000980420C4F20100016862F31A615D
:10076000016002B070470000002848BF7047C1B266
:1007700000F01F00012202FA00F04EF20012CEF249
:10078000000242EAD10121F0030108607047000035
:1007900010B54EF60C5CCEF2000CDCF80030C3F362
:1007A000022E8EF00704042C28BF0424BEF103039C
:1007B0004FF0FF3E0EFA04F438BF0023A1439940E6
:1007C0000EFA03F39A43114300F00F0200F1604365
:1007D0000901043A03F564436244002848BF02F16A
:1007E0000C03197010BD00004EF60C51CEF2000142
:1007F0000A684FF6FF031A4060F30A2242F0806055
:1008000040F0FD70086070472DE9F04381B000288A
:1008100000F0858042F20008C4F202080446D8F8CD
:1008200000000D4600F0070088420CD2D8F8000006
:1008300020F007002843C8F80000D8F8000000F0B6
:100840000700A8426BD1206841F204098107C4F275
:10085000020917D5410705D5D9F8001041F4E06128
:10086000C9F80010010705D5D9F8001041F460510E
:10087000C9F80010D9F80010A26821F0F001114366
:10088000C9F80010C00741D1D8F8000000F00700F7
:10089000A8420CD9D8F8000020F007002843C8F877
:1008A0000000D8F8000000F00700A84237D1206807
:1008B000410707D5D9F80010E26821F4E06111433F
:1008C000C9F80010000708D5D9F80000216920F404
:1008D000605040EAC100C9F80000D9F8002002F0D9
:1008E0000C00082841F20020C0F27A0050D142F2F8
:1008F000DE43C2F38341C0F60003595CD2033BD40C
:1009000040F60010C0F23D00484341E06068022814
:100910000AD001282AD159F8041C890308D40120DF
:1009200001B0BDE8F08300BF59F8041C8901F6D579
:10093000D9F8001021F003010843C9F80000FFF7BF
:10094000A5FE064641F28837D9F80000616800F03C
:100950000C00B0EB810F97D0FFF798FE801BB842D8
:10096000F2D9032001B0BDE8F08300BF59F8041CA0
:100970008907D4D5DCE700BFD9F8002042F2C44390
:10098000C2F34042C0F600039A5C4843B0FBF2F069
:10099000D9F8001042F2C642C1F30311C0F60002BA
:1009A000515C40F2080220FA01F140F20400C2F268
:1009B00000000068C2F200021160FFF78FFE002005
:1009C00001B0BDE8F083000040F2080041F20401EC
:1009D000C2F20000C4F202010068096842F2D64285
:1009E000C1F30221C0F60002515CC840704700000C
:1009F00040F2080041F20401C2F20000C4F2020118
:100A00000068096842F2D642C1F3C221C0F6000272
:100A1000515CC840704700002DE9F04182B00028C9
:100A200068D00446007841F20006C007C4F202060E
:100A300025D0706800F00C0004281BD0706800F00E
:100A40000C00082802D17068C00313D46068002825
:100A500000F06881B0F5A02F00F07C81B0F5803FF8
:100A600000F07C81306820F480303060306820F401
:100A7000802076E13068800301D56068D0B32078AB
:100A8000800718D5706810F00C0F07D0706800F060
:100A90000C0008286ED17068C0036BD430688007E2
:100AA00002D52069012825D13068616920F0F8005D
:100AB00040EAC1003060207800071FD4207840074A
:100AC00032D4E56995B1706800F00C00082840F058
:100AD0008F80012D0ED07068216A00F480328A4226
:100AE00008D1616A00F47010884203D1002002B07E
:100AF000BDE8F081012002B0BDE8F081A0690028C6
:100B000062D00020C4F242200121C0F88014FFF717
:100B1000BDFD0546706A800700F18C80FFF7B6FDC9
:100B2000401B0228F6D92AE1F06910F0805808D15C
:100B3000F06940F08050F061F06900F08050009062
:100B4000009847F20007C4F200073868C00529D4AE
:100B5000386840F480703860FFF798FD054600BFA4
:100B60003868C0051ED4FFF791FD401B6428F7D9F3
:100B700005E100BF2069002840F20000C4F24220D5
:100B800000F0828001210160FFF780FD054600BF73
:100B9000306880073FF588AFFFF778FD401B0228DB
:100BA000F6D9ECE0E068002800F08080052800F02D
:100BB0009780012800F09880306A20F001003062B0
:100BC000306A20F0040092E00020C4F242200021AC
:100BD000C0F88014FFF75AFD054600BF706A800711
:100BE0007FF56CAFFFF752FD401B0228F6D9C6E037
:100BF0000027C4F2422700203866FFF747FD022D88
:100C000005460BD13068800140F1BE80FFF73EFD04
:100C1000401B02284FF00300F4D968E730688001D8
:100C20007FF564AFFFF732FD401B02284FF0030051
:100C3000F4D95CE740F20800C2F20000006844F614
:100C4000D351C1F26201A0FB0101480A019000BF2B
:100C500000BF0198411E002801913FF42FAF00BF53
:100C60000198411E002801913FF428AF00BF019870
:100C7000411E002801913FF421AF00BF0198411EA1
:100C800000280191E4D119E700210160FFF7FEFC83
:100C9000054600BF306880077FF50DAFFFF7F6FC13
:100CA000401B02284FF00300F4D920E7306A20F0FF
:100CB00001003062306A20F004003062FFF7E6FC89
:100CC000054641F2883700BF306A800720D5FFF71C
:100CD000DDFC401BB8424FF00300F5D907E700BF29
:100CE000306A40F004003062306A40F00100306247
:100CF000FFF7CCFC054641F2883700BF306A800719
:100D000006D4FFF7C3FC401BB842F7D937E000BF59
:100D1000B8F1000F7FF4D5AEF06920F08050F0619B
:100D2000CFE600BF306820F480303060306820F4B7
:100D300080203060FFF7AAFC054600BF30688003C2
:100D40007FF59DAEFFF7A2FC401B64284FF0030027
:100D5000F4D9CCE6306840F480203060306840F44C
:100D600080303060FFF792FC054600BF306880039A
:100D70003FF585AEFFF78AFC401B6428F6D90320B7
:100D800002B0BDE8F08100BF206AB0F5803F05D118
:100D90007168A26821F40031114371607168626A60
:100DA00021F4741111430843706001203866FFF785
:100DB0006DFC0446306880013FF598AEFFF766FC95
:100DC000001B02284FF00300F4D990E690F8510080
:100DD0007047000070B538B10446406A30B1002059
:100DE000206104F1140007E0012070BD6068B0F5D7
:100DF000827F03D004F11C00002101600026A6625E
:100E000094F8510020B9204684F8506000F038F87A
:100E1000022084F8510094E8071001F482710368FD
:100E200002F4044223F040030360236911440CF4EC
:100E30000062114403F002026369114403F00102ED
:100E4000A369E569114403F40072114405F0380206
:100E5000256A114405F08002A56A114305F4005289
:100E600011430160042101EA13414160C16921F489
:100E70000061C1610120666584F85100304670BD93
:100E800070B586B040F60004C4F20104006804F5B1
:100E9000205100268842049602D006B070BD00BFE3
:100EA00041F21800C4F20200016802AD41F4805121
:100EB0000160016801F4805101910199016841F0DC
:100EC000040101600068294600F0040001900198C7
:100ED000A020029002200390032005902046FFF7F7
:100EE000C1FA4020CDE90206204629460496FFF7C4
:100EF000B9FA06B070BD00002DE9F04381B0044698
:100F000040681D461746B0F5827F0E4601D1A068A5
:100F1000E0B394F85000012804D1022001B0BDE8EC
:100F2000F08300BF4FF0010984F85090FFF7AEFB4B
:100F300094F85110012927D18046002E4FF001006E
:100F400018BF002F00F0C9800420002184F8510050
:100F50006165A663A787E7872163A186E186A2680A
:100F60002068B2F5004F216461644BD001684906E6
:100F700053D5E168E08F002957D0002800F0868023
:100F8000681C1CD12DE000BF0220A6E0042084F8DC
:100F900051002046314632463B46009500F090F91C
:100FA00001B0BDE8F08300BFC068A16B21F8020B5F
:100FB000A163E08F0138E087E08F002866D02068C9
:100FC0008168C907F0D1FFF761FBA0EB0800A842D8
:100FD000F2D3032081E000BFFFF758FBE08F002829
:100FE00054D020688168C907F6D0C068A16B21F889
:100FF000020BA163E08F0138E087E08F0028F0D179
:1010000044E000BF016821F040010160016821F463
:101010008041016001684906ABD4016841F040019C
:101020000160E168E08F0029A7D178B3681C0CD17A
:101030001CE000BF007BA16B0870A06B0130A063B7
:10104000E08F0138E087E08F00B320688168C9072E
:10105000F0D1FFF71BFBA0EB0800A842F3D303205D
:101060003BE000BFFFF712FBE08F78B1206881689A
:10107000C907F7D0007BA16B0870A06B0130A0639B
:10108000E08F0138E087E08F0028EFD16068B0F58D
:10109000827F11D1A068B0F5004F02D0B0F5806F0B
:1010A0000AD12168B0F5806F0A6822F040020A6018
:1010B00002D12046012101E0204680212A464346F4
:1010C00001F026F828B1606D40F020006065202016
:1010D0006065606D002818BF0120002184F85190E0
:1010E00084F8501001B0BDE8F08300002DE9F04312
:1010F00081B0044690F85000012803D1022001B0CD
:10110000BDE8F0834FF001091D4616460F4684F8EE
:101110005090FFF7BBFA94F85110012944D1804652
:10112000002F4FF0010018BF002E00F0C0800320F8
:10113000002184F8510061652763A686E686A163D5
:10114000A187E187A0682164B0F5004F2068616441
:1011500007D1016821F040010160016841F480413C
:1011600001600168490603D4016841F04001016053
:101170006168731EE268B1FA81F1B3FA83F3490939
:101180005B09B2F5006F41EA03013BD131B137F899
:10119000021BC1602763E08E0138E086E08E0028E4
:1011A0006AD0681C0DD11CE0022080E0216B31F870
:1011B000022BC2602163E08E0138E086E08E0028B9
:1011C0005AD0206881688907F0D4FFF75FFAA0EB56
:1011D0000800A842F2D338E0FFF758FAE08E002862
:1011E0004AD0206881688907F6D5216B31F8022B37
:1011F000C2602163E08E0138E086E08E0028F0D1E5
:101200003AE000BF39B139780173206B01302063B7
:10121000E08E0138E086E08E70B3681C0BD11BE0D5
:10122000216B09780173206B01302063E08E013857
:10123000E086E08E00B3206881688907F0D4FFF76C
:1012400025FAA0EB0800A842F3D303202FE000BF4B
:10125000FFF71CFAE08E78B1206881688907F7D51E
:10126000216B09780173206B01302063E08E013817
:10127000E086E08E0028EFD1204680212A464346B2
:1012800000F046FF28B1606D40F02000606520202E
:101290006065A06838B9002000902068C16800919E
:1012A000806800900098606D002818BF0120002120
:1012B00084F8519084F8501001B0BDE8F08300002C
:1012C0002DE9F04381B0044690F85000012803D185
:1012D000022001B0BDE8F08301201E4615460F46EE
:1012E00084F85000FFF7D2F994F851108146012993
:1012F0000CD06068B0F5827F40F0A080A068002824
:101300004FF0020008BF042940F09980002F4FF0F1
:10131000010018BF002D00F09280002E00F08F8099
:1013200094F85100002104281CBF052084F85100C6
:101330006165A563E687A6872763E6862068A6869B
:10134000216461640168490603D4016841F04001E9
:1013500001606168731EE268B1FA81F1B3FA83F348
:10136000DDF8208049095B09B2F5006F41EA03010D
:101370006ED131B137F8021BC1602763E08E0138AE
:10138000E086012518F1010031D101E0FFF77EF977
:10139000E08E18B9E08F002800F0C28020688168D4
:1013A00089070CD5E18E51B1012D08D1216B0025A3
:1013B00031F8022BC2602163E18E0139E186816838
:1013C000C907E3D0E18F0029E0D0C068A16B0125F7
:1013D00021F8020BA163E08F0138E087D6E700BF58
:1013E000FFF754F9A0EB0900404580F0A980E08E9A
:1013F00018B9E08F002800F0938020688168890781
:101400000CD5E18E51B1012D08D1216B002531F8A9
:10141000022BC2602163E18E0139E1868168C90730
:10142000DED0E18F0029DBD0C068A16B012521F857
:10143000020BA163E08F0138E087D1E70220012190
:1014400084F85110002184F8501001B0BDE8F083F9
:1014500039B139780173206B01302063E08E013897
:10146000E086012518F1010032D101E0FFF70EF905
:10147000E08E10B9E08F002852D02068816889077B
:101480000ED5E18E61B1012D0AD1216B00250978BD
:101490000173216B206801312163E18E0139E186FE
:1014A0008168C907E2D0E18F0029DFD0C068A16B55
:1014B00001250870A06B0130A063E08F0138E08740
:1014C000D4E700BFFFF7E2F8A0EB0900404539D2AE
:1014D000E08E08B9E08F18B32068816889070ED5BF
:1014E000E18E61B1012D0AD1216B002509780173CC
:1014F000216B206801312163E18E0139E186816829
:10150000C907DFD0E18F0029DCD0C068A16B0125BD
:101510000870A06B0130A063E08F0138E087D1E74D
:101520002046802142464B4600F0F2FD60B1606DDE
:1015300040F0200060652020606501207FE700BF4B
:1015400003207CE703207AE7A06800284FF0000022
:101550007FF475AF00902168CA6800928968009195
:1015600000996CE7411E0020B0EB116F1CBF0120F9
:1015700070474EF21002CEF2000251604EF6235137
:10158000CEF20001F0230B700721906011607047CC
:101590007047000070470000B0B582B00268054691
:1015A0001068D368546900F02F01202903F020014E
:1015B00006D129B1284602B0BDE8B04000F026BEF1
:1015C0005FEA007C1EBF04F0010E03F4907414EB7C
:1015D0000E0453D1296B012905D110F0100118BF59
:1015E00013F0100136D1010622D513F080011FD06F
:1015F00095F83D0021283FD1A868B0F5805F03D160
:101600002869002800F0F880286A411C29620078C7
:101610005060E88C01380104E8842DD1D06820F0B6
:101620008000D060D06840F04000D06002B0B0BD13
:10163000400621D513F040001ED0D068202120F0B4
:101640004000D060284685F83D1002B0BDE8B040AB
:1016500000F064BA00200190106801905068019079
:1016600001985069400611D4A88DE98DEB8D002BAF
:1016700018BF884240F0A68002B0B0BDC40718BFB2
:1016800013F480732CD1430730D436E0A86B016883
:101690004B689CB2002CEFD0A98D8C42ECD2EB852C
:1016A0008369202B17D0D16821F48071D1605169F2
:1016B00021F001015161516921F040015161202166
:1016C00085F83E1000212963D16821F01001D16016
:1016D000FEF708FEA98DE88D081A81B2284685E03C
:1016E0002B6C43F001032B64430706D5BEF1000FBA
:1016F00003D02B6C43F002032B64830706D5BEF1A5
:10170000000F03D02B6C43F004032B64BCF1000FDB
:1017100009D541EA0E03B3FA83F35B0903D12B6CBD
:1017200043F008032B642B6C002BA5D010F0200095
:1017300018BF002903D0284600F068FD2A685069C8
:10174000296C00F0400001F0080140182CD0D0684E
:1017500020F49070D060506920F001005061286B37
:10176000012803D1D06820F01000D060202085F837
:101770003E0000202863506940061DD5506920F0C6
:1017800040005061A86BB8B142F20121C0F60001DF
:101790004163FEF7CBFD00283FF46EAFA86B416BB1
:1017A00002B0BDE8B04008472846FFF7F3FE00202E
:1017B000286402B0B0BD00BF284602B0BDE8B0400A
:1017C000FFF7E8BED368401A23F49073D3605369DF
:1017D00081B223F001035361202385F83E300023BA
:1017E0002B63D368284623F01003D36002B0BDE812
:1017F000B040FFF7CDBE00BF286A30F8021B6FF380
:101800005F215160286204E7002804BF012070476F
:1018100010B5044690F83D0028B9002084F83C003B
:10182000204600F061F8242084F83D002068D4E9C7
:101830000212C36823F40053C360036923F44053C6
:101840001A430261D4E904231143C268194341F2E7
:101850000C639A431143C1604169A26921F440714C
:10186000114343F60002C4F201029042416103D0E9
:10187000FFF7AAF802E000BFFFF7BAF86268192183
:1018800048439100B0FBF1F048F21F51C5F2EB1153
:10189000A0FB01235A094FF69C73C0F6FF7302FBAD
:1018A0000300322303EB0010A0FB0101F02303EA45
:1018B0005113206803EB0212C1F3431111448160FC
:1018C000016921F490410161416921F02A014161DE
:1018D000C16841F40051C16000202021206484F8D7
:1018E0003D1084F83E1010BD70B586B040F600047F
:1018F000C4F20104006804F54051002688420496B1
:1019000002D006B070BD00BF41F21800C4F2020060
:10191000016802AD41F480410160016801F4804139
:1019200001910199016841F00401016000682946B4
:1019300000F00400019001984FF400700290022022
:101940000390032005902046FEF78CFD4FF4806045
:10195000CDE90206204629460496FEF783FD2520A0
:1019600000210022FEF714FF2520FEF7FDFE06B041
:1019700070BD0000704700002DE9F041044690F86A
:101980003D0020280ED10D4600294FF0010000F047
:101990008E801646002A08BFBDE8F08194F83C000E
:1019A000012803D10220BDE8F08100BF012084F8A6
:1019B0003C00002020642120984684F83D00FEF77A
:1019C00065FEA684E684A1680646B1F5805F03D172
:1019D0002069002800F0A0802F460025002084F810
:1019E0003C00E08CE0B118F101001BD0B8F1000F11
:1019F00060D120680BE000BF35F8021B00276FF3B1
:101A00005F214160E18C0139E184E18C51B30168CF
:101A100009066DD5002FEFD017F8011BF1E700BFC5
:101A200020681FE0206802E00168090609D4016807
:101A3000090606D4016809065CBF01685FEA016116
:101A4000F2D51FB117F8011B05E000BF35F8021BE6
:101A500000276FF35F214160E18C0139E184E18C63
:101A60000029E4D1016849061DD4B8F1000F3FD028
:101A700018F101010ED10168490614D40168490624
:101A80005CBF01685FEA41610DD401684906F2D587
:101A900009E000BFFEF7FAFD811B2068414527D809
:101AA00000684006F6D5202084F83D000020BDE8FF
:101AB000F08100BF206800BF0168090606D4FEF768
:101AC000E5FD811B20684145F6D911E017B117F8F3
:101AD000011B04E035F8021B00276FF35F21416012
:101AE000E18C0139E184E18C0029E5D1BAE700BF3E
:101AF000C16821F4D071C160416921F001014161E7
:101B0000202084F83D0084F83E00002084F83C004A
:101B10000320BDE8F08100BF00275FE770470000A9
:101B2000FEE700002DE9F04383B001250DF10A0125
:101B30000DF10B03012204468DF80A50009500F0C8
:101B4000A3F99DF80B00002700F0F8004FF0810882
:101B50008DF80B000DF10A010DF10B032046012257
:101B6000E7618DF80A80009500F0A0FA0A20FEF7E0
:101B700033FC0DF10A010DF10B03204601228DF813
:101B80000A50009500F080F99DF80B600A20FEF7DE
:101B900023FC46F080008DF80B000DF10A010DF1D9
:101BA0000B03204601228DF80A80009500F07EFA92
:101BB0006420FEF711FC266A8621B0088DF80A1011
:101BC0008DF80B000DF10A010DF10B0320460122E7
:101BD000009500F06BFA0520FEF7FEFBB0018721AF
:101BE0008DF80A108DF80B000DF10A010DF10B03B1
:101BF00020460122009500F059FA0520FEF7ECFB83
:101C000088208DF80A000DF10A010DF10B03204622
:101C100001228DF80B70009500F048FA0520FEF7C0
:101C2000DBFB94F82A0089218DF80A108DF80B004F
:101C30000DF10A010DF10B0320460122009500F081
:101C400035FA0A20FEF7C8FB94F82B00CD222D2888
:101C500098BF2D20F02828BFF020A0F12D01C9B297
:101C6000514300F11E024CF6CD435A43D20C792861
:101C700038BF8A0A02F120008B218DF80A108DF8F6
:101C80000B000DF10A010DF10B0320460122009516
:101C900000F00CFA0A20FEF79FFB8C208DF80A005A
:101CA00023208DF80B000DF10A010DF10B032046E6
:101CB0000122009500F0FAF91E260DF10A010DF13E
:101CC0000B03204601228DF80A60009500F0DCF835
:101CD0009DF80B004FF09E0940F007008DF80B00B7
:101CE0000DF10A010DF10B03204601228DF80A9037
:101CF000009500F0DBF90A20FEF76EFB94F82470E3
:101D00000DF10A010C2FA8BF0C270DF10B03204683
:101D10000122072FD8BF07278DF80A60009500F031
:101D2000B3F89DF80B600A20FEF756FB06F00F0093
:101D300040EA07108DF80B000DF10A010DF10B03BD
:101D4000204601228DF80A90009500F0AFF90A2094
:101D5000FEF742FB9F208DF80A00FF208DF80B0054
:101D60000DF10A010DF10B0320460122009500F050
:101D70009DF994F8260094F82510400000EB01101E
:101D80009D218DF80A108DF80B000DF10A010DF15F
:101D90000B0320460122009500F088F994F82900F1
:101DA000A0218DF80A108DF80B000DF10A010DF13C
:101DB0000B0320460122009500F078F994F82800E2
:101DC000A1218DF80A108DF80B000DF10A010DF11B
:101DD0000B0320460122009500F068F940208DF8A1
:101DE0000A000DF10A010DF10B03204601220095B6
:101DF00000F04AF89DF80B00C02140F03F008DF83C
:101E00000A108DF80B000DF10A010DF10B032046AD
:101E10000122009500F04AF90DF10A010DF10B03C2
:101E2000204601228DF80A50009500F02DF89DF80B
:101E30000B000DF10A0100F0F80001308DF80B00E5
:101E40000DF10B0320460122E5618DF80A80009513
:101E500000F02CF90A20E561FEF7BEFA42208DF869
:101E60000A000DF10A010DF10B0320460122009535
:101E700000F00AF89DF80B104FF4CA70122908BF41
:101E8000C82003B0BDE8F0832DE9F04104461746B1
:101E9000A2880068069E0D46114600229846FEF76D
:101EA000EFFBA06929463A464FF4FA63FFF71EF9A3
:101EB000A069FEF78BFF0128FAD1A069414632469E
:101EC0004FF4FA63FFF718F8A069FEF77FFF0128C7
:101ED000FAD12068A1880122BDE8F041FEF7D0BB0D
:101EE0002DE9F04F83B01646894604461AB148469C
:101EF0003146FEF769F901270DF10A010DF10B03D7
:101F0000204601228DF80A700097FFF7BDFF9DF86B
:101F10000B00812500F0F80001308DF80B000DF169
:101F20000A010DF10B0320460122E7618DF80A50EA
:101F3000009700F0BBF812208DF80A000DF10A019D
:101F40000DF10B03204601220097FFF79DFF9DF83E
:101F50000B00400602D44FF000085FE092208DF89D
:101F60000A00FF208DF80B000DF10A010DF10B03A3
:101F700020460122009700F099F813208DF80A00FE
:101F80000DF10A010DF10B03204601220097FFF726
:101F90007BFF10209DF80B808DF80A000DF10A01DF
:101FA0000DF10B03204601220097FFF76DFF9DF80E
:101FB0000B008D218DF80A108DF80B000DF10A0130
:101FC0000DF10B0320460122009700F06FF8464503
:101FD00038BFB046B8F1000F4FF0000B1CD0A9F18C
:101FE00001074FF001090DF10A050DF10B06C2467C
:101FF00020462946012233468DF80AB0CDF80090DC
:10200000FFF742FF9DF80B00BAF1010A07F8010F34
:10201000EED10127812501E04FF000080DF10A0102
:102020000DF10B03204601228DF80A700097FFF78F
:102030002BFF9DF80B00052100F0F8000530E16151
:102040008DF80B000DF10A010DF10B032046012262
:102050008DF80A50009700F029F8404603B0BDE81B
:10206000F08F0000B0B582B0012501A90DF1050384
:10207000012204468DF804500095FFF705FF9DF8F6
:102080000500052100F0F8000530E16181218DF89F
:1020900006108DF807000DF106010DF1070320462B
:1020A0000122009500F002F802B0B0BD2DE9F04128
:1020B00004461746A2880068069E0D461146002277
:1020C0009846FEF7DDFAA06929463A464FF4FA63CE
:1020D000FFF70CF8A069FEF779FE0128FAD1A06994
:1020E000414632464FF4FA63FFF700F8A069FEF765
:1020F0006DFE0128FAD12068A1880122BDE8F041D7
:10210000FEF7BEBAFEE70000FEE7000070470000E1
:102110002DE9F04182B01E4690460D460446FEF77A
:10212000B5FA301A00EB0807FEF7B0FA40F20801E2
:10213000C2F200010968C1F3CB31794301912168F2
:102140008A682A40AA4227D1064618F101001FD00A
:10215000FEF79CFA801BB84222D201980199002810
:10216000A1F1010101912168896808BF074601EAD0
:102170000500A842ECD00FE088682840A8420BD1A7
:1021800088682840A84207D188682840A84203D11F
:1021900088682840A842EFD0002002B0BDE8F08156
:1021A000D4E900014268B1F5827F22F0E00242608A
:1021B0000AD1A168B1F5004F02D0B1F5806F03D10B
:1021C000016821F040010160A16AB1F5005F07D10B
:1021D000016821F400510160016841F4005101607F
:1021E000012084F85100002084F85000032002B040
:1021F000BDE8F08170470000FEF74EBA704700005E
:10220000406A0021C185C184FFF7C4B981B090F84C
:102210003E10222921D183680246B3F5805F09D19F
:1022200052F8281F52F8183C002B3FD003685B6817
:102230000AE000BF52F8281F13B90369002BF5D03C
:1022400003685B6803F07F030B7011680131116054
:10225000C18D01390A04C18502D001B0704700BFA9
:102260000168CA6822F02002CA60CA6822F480723B
:10227000CA604A6922F001024A61202280F83E20A9
:10228000026B012A1AD100220263CB6823F01003EB
:10229000CB600B68DB0605D500920A68009249689E
:1022A00000910099818D01B0FFF772B90268526800
:1022B0006FF35F2221F8022B8162C9E701B0FFF7BB
:1022C00059BB000040F2A000C2F20000FFF764B961
:1022D000FEE7000090B0FEF7EDF900240120CDE903
:1022E0000544CDE90344009004904FF4E0104FF40E
:1022F0008031022509906846CDE90114CDE90751E6
:10230000FEF78AFB20B1EFF3108072B6FEE700BF44
:102310000F20CDE90B054FF480660BA802210D9428
:10232000CDE90E64FEF770FA20B1EFF3108072B6BB
:10233000FEE700BF41F21800C4F20200016840F657
:10234000004441F0200101600168C4F2010401F081
:102350002001009100990168012241F0040101600F
:102360000168032501F0040100910099016801272B
:1023700041F0080101600068032100F008000090AE
:1023800000982046FEF77CF9CDE9005702206D4603
:1023900000270390204629460297FEF763F80020A5
:1023A000C1F21100CDE90107204629460096FEF74B
:1023B00059F8282000210022FEF7EAF92820FEF72C
:1023C000D3F940F2641504F51050C2F200054FF441
:1023D000827185E883000A204FF400721023C5E95A
:1023E0000A702846C5E90377C5E90572EB61C5E9BE
:1023F0000877FEF7EFFC28B1EFF3108072B600BF4C
:10240000FEE700BF40F27006C2F2000604F530514C
:10241000304640F8301F4FF4E1310C22C0E901177B
:10242000C0E90377C0E90527C761FFF7EDF928B1D7
:10243000EFF3108072B600BFFEE700BF684600F001
:1024400033F8DDE900C1DDE9050E02AFB160C6E990
:10245000060EDDE909018CCFDDE90789C6E90A012D
:102460000120F26033617761C6E90889374630811F
:10247000022047F804CF30824FF480603083384622
:102480003C60F4607461F561FFF74CFB307006F15D
:102490003000314601224FF6FF73FFF76DFA3846E0
:1024A000FFF7E0FDFEE7000040F2B111016240F2EB
:1024B00007718184012180F826100821C6F2FF41AE
:1024C000816270470102000000000000000001026C
:1024D00003040607080900000000010203040203C8
:1024E0000405060708090A0B0C0D0E0F101000005A
:1024F000102500080000002010000000280100083E
:102500002025000810000020B0070000440100084A
:1025100001000000100000000024F4000000000092
:04000005080000ED02
:00000001FF
