:020000040800F2
:10000000A00700208901000825380008892A000877
:1000100021380008D5020008ED3900080000000072
:10002000000000000000000000000000113900087E
:10003000D90200080000000029380008153900081E
:10004000A3010008A3010008A3010008A301000800
:10005000A3010008A3010008A3010008A3010008F0
:10006000A3010008A3010008A3010008A3010008E0
:10007000A3010008A3010008A3010008A3010008D0
:10008000A3010008A3010008A3010008A3010008C0
:10009000A3010008A3010008A3010008A3010008B0
:1000A000A3010008A3010008A3010008A3010008A0
:1000B000A3010008A3010008A3010008992A000871
:1000C0008D2A0008A3010008A3010008A30100086D
:1000D000A3010008E1390008A3010008A3010008FA
:1000E000DD020008A3010008A301000800F002F8E7
:1000F00000F03AF80AA090E8000C82448344AAF188
:100100000107DA4501D100F02FF8AFF2090EBAE885
:100110000F0013F0010F18BFFB1A43F0010318473B
:100120004C3C00006C3C0000103A24BF78C878C1F9
:10013000FAD8520724BF30C830C144BF04680C60ED
:10014000704700000023002400250026103A28BF35
:1001500078C1FBD8520728BF30C148BF0B60704739
:100160001FB51FBD10B510BD00F07AF81146FFF79E
:10017000F7FF03F03DFC00F098F803B4FFF7F2FF3F
:1001800003BC00F09FF80000094880470948004779
:10019000FEE7FEE7FEE7FEE7FEE7FEE7FEE7FEE737
:1001A000FEE7FEE704480549054A064B7047000094
:1001B00019390008ED000008A0010020A007002068
:1001C000A0030020A00300204FF000020429C0F08B
:1001D000128010F0030C00F01E80CCF1040CBCF176
:1001E000020F18BF00F8012BA8BF20F8022BA1EBCB
:1001F0000C0100F010B85FEAC17C24BF00F8012BAD
:1002000000F8012B48BF00F8012B7047704770477A
:1002100070474FF0000200B51346944696462039C9
:1002200022BFA0E80C50A0E80C50B1F12001BFF4AF
:10023000F7AF090728BFA0E80C5048BF0CC05DF815
:1002400004EB890028BF40F8042B08BF704748BF63
:1002500020F8022B11F0804F18BF00F8012B7047D7
:10026000754600F02BF8AE4605006946534620F06F
:100270000700854618B020B5FFF794FFBDE8204081
:100280004FF000064FF000074FF000084FF0000B52
:10029000AC46ACE8C009ACE8C009ACE8C009ACE8C1
:1002A000C00921F007018D46704710B50446AFF331
:1002B00000802046BDE81040FFF75FBF0048704750
:1002C0001000002001491820ABBEFEE72600020006
:1002D00070470000FEE70000704700004FF48060A8
:1002E00000F046B9014690F82100022816D10868AE
:1002F000D1E90FC3026822F00E020260026822F008
:1003000001020260012000FA03F2CCF8042081F817
:1003100021000020002281F82020704704208863FB
:100320000120002281F820207047000080B590F85D
:100330002110022924D10268116821F00E011160F8
:100340002F211368C4F202018A4240F20401C4F270
:10035000020123F00103136016DD3023C4F202030F
:100360009A421DD04423C4F202039A421CD058235F
:10037000C4F202039A421DD14FF4803322E000BF41
:1003800004218163012080BD0823C4F202039A4244
:100390000ED01C23C4F202039A420BD1102311E0A9
:1003A0004FF480730EE000BF4FF480530AE000BFAB
:1003B000012307E001F1680C4FF08073624508BF2C
:1003C0004FF480130B60416B4FF48072028401B1D3
:1003D0008847002080BD000090F821007047000091
:1003E000B0B5044600F0E4F9054640F20000C2F260
:1003F00000000078611C18BF044400BF00F0D8F969
:10040000401BA042FAD3B0BDB0F5806F18BF704753
:100410002DE9F04383B040F27008C2F2000808F101
:10042000010408F10C0021460A2203F0E7F808F164
:10043000380021460A224FF6FF7302F051FA40F6C7
:100440000C0040F2EC04C1F61C00C2F20004029061
:100450004FF0FF3602AA20464E210423009600F0FA
:1004600049FE45F65D10C4F64D1002AD02902046DF
:100470004E212A460423009600F03CFE43F63D1927
:10048000CAF6AD1920464E212A460423CDF808901D
:10049000009600F02FFE42F62D17C0F60D172046ED
:1004A0004E212A4604230297009600F023FE98F876
:1004B000010002F055FE02AD20464E212A460423DB
:1004C0000297009600F016FE44F64D10C3F63D105C
:1004D000029020464E212A460423009600F00AFE90
:1004E0004CF6CC00C0F60C00029002AA20464E2129
:1004F0000423009600F0FEFD44F64D10C8F68D1062
:1005000002AD029020464E212A460423009600F0B8
:10051000F1FD20464E212A460423CDF8089000968E
:1005200000F0E8FD20464E212A460423029700965B
:1005300000F0E0FD98F8020002F012FE02AD204645
:100540004E212A4604230297009600F0D3FD42F67E
:100550002D10C5F65D10029020464E212A46042338
:10056000009600F0C7FD03B0BDE8F04370470000FF
:1005700040F21441C4F201010A68024214BF08604B
:100580007047FFF741BF00002DE9F04F82B00E68C1
:10059000002E00F0038140F20C4C41F200424FF675
:1005A000FF7EC4F2010CC4F20102042700240123DF
:1005B000C1F2100E4FF0000A4FF00009904208BF40
:1005C0000327009745E000BF012704F00C030F222A
:1005D0009A402BEA020207FA03F34FEA9A051A43FC
:1005E00046F82520D1F804B040F20045C4F20105D8
:1005F0005FEACB322A6854BF22EA080242EA0802C4
:100600002A606A685FEA8B3354BF22EA080242EA32
:1006100008026A605FEACB23AA6854BF22EA080294
:1006200042EA08025FEA8B23AA60DCF800204FF060
:10063000010354BF22EA080242EA0802CCF8002073
:100640000E680AF1010A36FA0AF204F1040400F015
:10065000A58003FA0AF816EA080FF1D04E6876452D
:1006600012DC122E56D8DFE806F0350B45495555F9
:1006700055555555555555555555554D510000BF76
:10068000D1F80C9046E000BF4FF6FF72C1F2210294
:1006900096420FDC0022C1F2110296421AD00022CB
:1006A000C1F21202964215D00022C1F221029642F6
:1006B00010D02FE00022C1F2220296420AD000227E
:1006C000C1F23102964205D00022C1F232029642B6
:1006D00020D100BF8A684AB1012A14BFC0F8148033
:1006E000C0F810804FF0080914E000BF4FF0040973
:1006F00010E000BFCA6802F108090BE04FF00009E2
:1007000008E000BFCA6802F1040903E0CA6802F108
:100710000C0900BF22460646BAF1080F24BF203A52
:10072000043637680F25954027EA050509FA02F2D5
:100730002A433260CA79D2067FF582AF41F21803AC
:10074000C4F202031A6842F001021A601A6802F049
:1007500001020192019A40F20042C4F20102A2F5A4
:100760007E762AF0030256F802B040F60002C4F288
:100770000102904210D040F60042C4F201029042C1
:100780003FF422AF41F20002C4F20102009F904206
:1007900008BF022719E700BF002716E702B0BDE82F
:1007A000F08F0000002A08BF0904016170470000B3
:1007B00040F29810C2F200000068704770470000D5
:1007C00070470000F0B581B0044600680025476915
:1007D000426894F83E1002F48076FA0508D53EB1DE
:1007E0006FF4807242610268012542F400420260A7
:1007F000BA0505D5002E1EBF02356FF400724261A6
:100800007A0516D5AEB1628D94F83D30D4F830C07B
:10081000202908BF002A23D06FF48062402905F107
:100820000405426101D0102903D1016841F400712F
:100830000160380506D52EB1206808356FF40061D7
:10084000416100E055B1206C40EA05012046216479
:1008500001B0BDE8F04002F0B7B900BF01B0F0BD93
:1008600003F0F701212909D0282B08BFBCF1210F83
:1008700004D06FF4806141610435DAE794F83D10EB
:10088000E26AB2F1080318BF0123203A18BF01221F
:10089000134208BF28291DD0212935D10021CFF6C8
:1008A000FF71E16221212163202184F83D100021A4
:1008B00084F83E10416821F4E06141606FF480618A
:1008C0004161016821F480610160204600F096FEDC
:1008D000AFE700BF0021CFF6FF71E162416821F46C
:1008E000E06141606FF480614161016821F48061E1
:1008F000016000202021206384F83D1084F83E0030
:10090000204600F0F1FB94E76FF48061416190E7CD
:10091000F0B581B0076804467868E26A94F83E3022
:1009200094F83DE0402B01D0102B27D1BE697D69A2
:10093000E90751D1B2F12A4F00F0BE82B2F52A0F79
:1009400000F0BA8200F400724FF0010C29078CEA23
:10095000522C45D5002A43D0606B616CC9B2396115
:1009600018B1806A002840F02481A06B002800F0B4
:10097000A382806A002840F01C819DE2216C00F473
:10098000007300290CBFBE6900267D69A90753D5F5
:10099000002B51D0206C002818BFBE6994F83D0090
:1009A00000F02800282840F093807868002320F485
:1009B00080607860012020EA960130064FF0180030
:1009C00058BF0C20225A204684F83C3001B0BDE8C4
:1009D000F040FFF7F5BE00BF810557D44FF0010C82
:1009E000A90759D5BCF1000F56D194F83E30E06A02
:1009F000226B94F83D10222940F0E280216D0029FD
:100A000008BF402B00F0DC80216D002940F03281CE
:100A10002169B1F5404F40F02D81002000907869A8
:100A20000090B86900900098386840F48070386091
:100A3000206D013093E200BFE90655D5002B53D05D
:100A400094F83D50786820F4E060786000200090D1
:100A500078690090386840F0010038600098386884
:100A600020F4806038607868000540F1408105F02E
:100A7000F7002646222840F0198156F8380F016801
:100A8000496826F80E1C36F80E1C17E1E06AB0F52E
:100A90002A0F5FD1012062E07968720701F40061DA
:100AA00000F19880002940F00782690605F00401F2
:100AB00040F1AE8110F4806000F0AA81002940F07E
:100AC000A781204601B0BDE8F04002F0B7B900BFF1
:100AD0000020009079690091B9690091009984F82B
:100AE0003C0001B0F0BD00BF0EF0F70100F48062E1
:100AF000212905F0040040F08380290640F1488157
:100B0000002A00F04581002840F0428194F83D0021
:100B1000618D002900F0D081616A11F8012B3A61E2
:100B20006162618D01396185618D002908BF2928C5
:100B300040F0C2817868282120F48060786021200C
:100B40002063204684F83D1001B0BDE8F04000F07D
:100B500055BD00BFE06AB0F12A4F01D10820E06224
:100B600094F83E0040280BD1206D616C002801F004
:100B7000FE0018BF40F00100386101B0F0BD00BFB9
:100B80002069B0F5804F65D194F83D00616C212853
:100B900001F0FE0118BF01313961606B08B1806A54
:100BA00038B9A06B002800F08781806A002800F027
:100BB0008381786840F40060786001B0F0BD00BFC8
:100BC0000020009078690090B8690090009801B00A
:100BD000F0BD00BF002940F06F81290605F0040137
:100BE00040F1228110F4806000F01E81002940F065
:100BF0001B81204601B0BDE8F04002F0FDB900BF06
:100C0000690640F1D980002A00F0D680002840F023
:100C1000D38094F83D00618D002900F04D81396941
:100C2000626A1170616A01316162618D01396185A9
:100C3000618D002908BF2A2840F03E812068416864
:100C400021F480614160222028212063204684F81D
:100C50003D10D8E0206D002800F0C080206D0128F4
:100C600040F02A81606C062101EAD010F130386131
:100C700001B0F0BD618D61B1618D012940F0E4806A
:100C8000202818BF082840F01981386820F48060B7
:100C900038600020009078690090B8690090009852
:100CA000386840F40070386058E100BF56F8340FDF
:100CB0000168496826F80A1C36F80A1C19B1216C2B
:100CC00041F004012164796821F400617960FFF743
:100CD00083FB01280BD0306842F6A521C0F6000145
:100CE0004163FFF723FB10B13068416B8847608D8B
:100CF00060B120684169490730D4416949063AD456
:100D0000608D18B1206C40F004002064206C28B184
:100D1000204601B0BDE8F04001F056BF2A2D07D1B2
:100D200000202063282084F83D00204600F064FC69
:100D300094F83D00282859D10020CFF6FF70E062DA
:100D400000212020216384F83D00204684F83E10D5
:100D500001B0BDE8F04000F0C7B900BF0069616AAA
:100D60000870616A206801316162618D01396185B5
:100D700041694906C4D50069616A0870606A01303A
:100D80006062608D01386085608D0028BAD1BDE752
:100D9000002818BF002B00F08F80608D002800F025
:100DA0008B80606A10F8011B39616062608D0138C8
:100DB000608501B0F0BD00BF002818BF002B00F017
:100DC0007B80608D002877D03869616A0870606A1E
:100DD00001306062608D013860856DE0606C0621D5
:100DE00001EAD010F030386101B0F0BD206B22284C
:100DF00018BF222D60D100212020216384F83D00FE
:100E0000204684F83E1001B0BDE8F04000F0F4BB8D
:100E1000B1FA81F0400950EA0C004DD1204601B0F2
:100E2000BDE8F04001F096BFB1FA81F0400950EA08
:100E30000C0041D1BEF1210F36D1204601B0BDE8F2
:100E4000F04002F097B800BF618D022914D110283C
:100E500058D8012114228140C0F20102114251D020
:100E6000396841F48061396000210091796900910D
:100E7000B9690091009954E0396841F480613960A2
:100E80007968090563D5421E1F2A5DD8012191406A
:100E900048F28102C8F20002114255D0786840F44D
:100EA0008050786053E000BF402B05D1204601B050
:100EB000BDE8F04002F0FAB801B0F0BD10F5803F97
:100EC0000CD1386820F480603860786800057FF5C0
:100ED000E0AE386820F48060386038E0122A02D131
:100EE00001287FF4D2AE1028F3D8012101FA00F0D6
:100EF0001421C0F201010842EBD0386840F4806050
:100F0000386024E0396841F40061396000210091C3
:100F100079690091B96900910099396821F480617B
:100F200039607968090519D5421E1F2A1AD801218E
:100F3000914048F28102C8F20002114212D0786852
:100F400040F48050786009E010F5803FA6D0002082
:100F5000009078690090B8690090009800202065A2
:100F600001B0F0BD10F5803FE9D0F7E77047000011
:100F700070B5B8B3044690F83D0028B9002084F855
:100F80003C00204600F0F6FA242084F83D0020685A
:100F9000016821F001010160016841F40041016034
:100FA000016821F40041016000F0C2FC48F2804178
:100FB000C0F21E0140F60013D4F804E088424FF05E
:100FC0000001C0F23D0348F2A16C4FF0000238BFAF
:100FD00001219842C0F2010C38BF0122E64538BF1A
:100FE0000A460AB1012070BD4DF68361C4F21B317F
:100FF000A0FB01122168950C4B684FF4967623F004
:101000003F0343EA9243754344F6D3564B60C1F223
:1010100062060B6AA5FB0656B50923F03F03E645B9
:1010200038BF950C6A1C1A430A62CA6948F2A06666
:101030004CF6FF73C0F20106B64522EA03020BD854
:1010400001384FEA4E03B0FBF3F001306FF31F306D
:10105000042898BF04201EE0A368013863B1192357
:101060000EFB03F3B0FBF3F001306FF31F3078B1E8
:1010700000F5804008E000BF0EEB4E03B0FBF3F03C
:1010800001306FF31F3028B100F5004003E000BFCE
:10109000012000E001201043C8610868D4E907235B
:1010A00020F0C000104318430860886848F2FF32FF
:1010B00004F10C0690434CCE18431043A569886098
:1010C000C86820F0FF0030432843C860086840F03B
:1010D0000100086000202021206484F83D10206376
:1010E00084F83E0070BD00007047000070470000AB
:1010F000704700002DE9F04381B01F461646884630
:101100000446FFF755FB94F83D10202920D10546F1
:1011100020688169890717D5FFF74AFB401B19280A
:10112000F6D900202021206384F83D1084F83E0089
:10113000216C022641F02001216484F83C003046F5
:1011400001B0BDE8F08300BF94F83C10012905D13F
:101150000226304601B0BDE8F08300BF012184F8CB
:101160003C100168C90703D1016841F00101016029
:10117000016821F400610160212184F83D101021F3
:1011800084F83E100021216466626785618D2185A7
:101190000021CFF6FF71E162E16A11F5803F18BFCF
:1011A000012919D1016841F4807101604169DDF8BC
:1011B0002090C90723D119F1010116D0B9F1000F10
:1011C00046D000BFFFF7F4FA401B484542D82068DC
:1011D0004169C907F6D012E00829E3D0216B122932
:1011E000E0D0E3E74169C90709D14169C90706D1E0
:1011F0004169C90704BF41695FEAC171F2D0216941
:10120000B1F5804F02D1FE2161E000BF062101EA65
:10121000D811F03101614169090757D4416919F1C9
:10122000010201F480612FD0002946D1B9F1000FED
:1012300000F04281FFF7BCFA401B484500F23E81B6
:1012400020684169090741D441694905F2D534E074
:10125000FFF7AEFA00202021206384F83D1084F8C7
:101260003E00216C012641F020012164216884F8B0
:101270003C000868C00544BF4FF40070206430464D
:1012800001B0BDE8F08300BFB9B9416909071DD4B9
:101290004169490511D44169090717D441694905D4
:1012A0000BD44169090711D44169490505D4416945
:1012B00009070BD441694905E7D5016841F400717C
:1012C00001606FF4806141610420F8E0FF2101EAD0
:1012D00008010161416989073AD4416919F10102A4
:1012E00001F4806112D051BBB9F1000F00F0E08031
:1012F000FFF75EFA401B484500F2DC802068416938
:10130000890725D441694905F2D518E0B9B9416981
:1013100089071DD44169490511D44169890717D44A
:10132000416949050BD44169890711D441694905CF
:1013300005D4416989070BD441694905E7D501689E
:1013400041F4007101606FF4806141610420B6E0F6
:101350000026009641690091816900910099218DD4
:10136000002900F0958009F10108014651F8142F79
:10137000120635D4B8F1000F16D0B9F1000F00F005
:10138000AF8000BF0868400500F1B280FFF710FA97
:10139000401B484500F2A9802068014651F8142FEF
:1013A0001206EFD51CE000BF0A68520500F1A080CC
:1013B0000A68120614D40A68520500F199800A6876
:1013C00012060DD40A68520500F192800A681206CE
:1013D00006D40A68520500F18B800A681206E3D52C
:1013E000636A194611F8012B02616162618D01394E
:1013F0006185278D0146A7F1010CA4F828C051F89A
:10140000142F52070DD55FEA0C420AD05A78A7F183
:10141000020C02619A1C6262628D013A6285A4F834
:1014200028C00A6852072FD4B8F1000F14D0B9F1C0
:10143000000F7BD00868400500F18080FFF7B8F905
:10144000401B484577D82068014651F8142F5207B1
:10145000F0D5B4F828C017E00A6852056ED40A68BF
:10146000520711D40A68520568D40A6852070BD48F
:101470000A68520562D40A68520705D40A68520500
:101480005CD40A685207E7D55FEA0C417FF46DAF80
:10149000016841F400710160202084F83D0084F867
:1014A0003E6084F83C60304601B0BDE8F08300BF88
:1014B000FFF77EF9202002E0FFF77AF920200021D3
:1014C0002022216384F83D2084F83E10226C0126FE
:1014D0001043206484F83C10304601B0BDE8F0832E
:1014E0000868400504D4FFF763F9202004E000BF3A
:1014F0006FF480600860042000212022216384F8BA
:101500003D2084F83E10226C1043206484F83C1087
:10151000206C042825D120680126016841F400715F
:101520000160304601B0BDE8F08300BF08684005A7
:1015300004D4FFF73DF9202004E000BF6FF4806081
:101540000860042000212022216384F83D2084F8D3
:101550003E10226C1043206484F83C10206C042858
:10156000D9D00126304601B0BDE8F08370470000B5
:101570007047000010B586B045F200410068C4F223
:10158000000100228842049202D006B010BD00BFC4
:1015900041F21804C4F20204206840F00800206000
:1015A000206800F0080001900198C02002901220ED
:1015B00003900320059001F5384002A9FEF7E4FFEF
:1015C0006068002140F4001060606068002200F450
:1015D0000010019001981F2000F08EF81F2000F0ED
:1015E00077F820200021002200F086F8202000F06B
:1015F0006FF806B010BD0000704700007047000093
:1016000040F2000040F29811C2F20000C2F2000164
:1016100000780A68104408607047000080B542F204
:101620000000C4F20200016841F0100101600320D3
:1016300000F08EF80F2000F005F800F027F80020E9
:1016400080BD000070B540F20006C2F2000640F214
:1016500008013278C2F200014FF47A730968B3FBD3
:10166000F2F20446B1FBF2F1084600F02FFF0F2C16
:101670004FF0010508D838B94FF0FF30214600225D
:10168000002500F039F87460284670BD82B041F240
:101690001800C4F202000168022241F00101016059
:1016A000016801F0010101910199416841F0805107
:1016B0004160406800F08050009000980420C4F21F
:1016C0000100016862F31A61016002B07047000016
:1016D000002848BF7047C1B200F01F00012202FA83
:1016E00000F04EF20012CEF2000242EAD10121F0E7
:1016F000030108607047000010B54EF60C5CCEF296
:10170000000CDCF80030C3F3022E8EF00704042C2A
:1017100028BF0424BEF103034FF0FF3E0EFA04F489
:1017200038BF0023A14399400EFA03F39A431143B3
:1017300000F00F0200F160430901043A03F564432D
:101740006244002848BF02F10C03197010BD00006C
:101750004EF60C51CEF200010A684FF6FF031A4014
:1017600060F30A2242F0806040F0FD70086070472C
:101770002DE9F04381B0002800F0858042F2000896
:10178000C4F202080446D8F800000D4600F0070035
:1017900088420CD2D8F8000020F007002843C8F88F
:1017A0000000D8F8000000F00700A8426BD12068C4
:1017B00041F204098107C4F2020917D5410705D592
:1017C000D9F8001041F4E061C9F80010010705D50F
:1017D000D9F8001041F46051C9F80010D9F8001090
:1017E000A26821F0F0011143C9F80010C00741D1EF
:1017F000D8F8000000F00700A8420CD9D8F8000083
:1018000020F007002843C8F80000D8F8000000F0D6
:101810000700A84237D12068410707D5D9F8001042
:10182000E26821F4E0611143C9F80010000708D50F
:10183000D9F80000216920F4605040EAC100C9F8DD
:101840000000D9F8002002F00C00082841F2002026
:10185000C0F27A0050D143F65A53C2F38341C0F626
:101860000003595CD2033BD440F60010C0F23D00A7
:10187000484341E0606802280AD001282AD159F87B
:10188000041C890308D4012001B0BDE8F08300BF27
:1018900059F8041C8901F6D5D9F8001021F003018C
:1018A0000843C9F80000FEF783FF064641F2883777
:1018B000D9F80000616800F00C00B0EB810F97D000
:1018C000FEF776FF801BB842F2D9032001B0BDE8D5
:1018D000F08300BF59F8041C8907D4D5DCE700BFAA
:1018E000D9F8002043F64053C2F34042C0F600034B
:1018F0009A5C4843B0FBF2F0D9F8001043F642522C
:10190000C1F30311C0F60002515C40F2080220FA54
:1019100001F140F20400C2F200000068C2F20002CD
:101920001160FFF78FFE002001B0BDE8F0830000DA
:1019300040F2080041F20401C2F20000C4F20201C8
:101940000068096843F65252C1F30221C0F6000252
:10195000515CC8407047000040F2080041F20401A9
:10196000C2F20000C4F202010068096843F6525254
:10197000C1F3C221C0F60002515CC84070470000AC
:101980002DE9F04182B0002868D00446007841F289
:101990000006C007C4F2020625D0706800F00C00F3
:1019A00004281BD0706800F00C00082802D1706871
:1019B000C00313D46068002800F06881B0F5A02F40
:1019C00000F07C81B0F5803F00F07C81306820F42D
:1019D00080303060306820F4802076E13068800309
:1019E00001D56068D0B32078800718D5706810F0F2
:1019F0000C0F07D0706800F00C0008286ED17068DA
:101A0000C0036BD43068800702D52069012825D136
:101A10003068616920F0F80040EAC1003060207849
:101A200000071FD42078400732D4E56995B170686B
:101A300000F00C00082840F08F80012D0ED0706857
:101A4000216A00F480328A4208D1616A00F4701081
:101A5000884203D1002002B0BDE8F081012002B02D
:101A6000BDE8F081A069002862D00020C4F24220C5
:101A70000121C0F88014FEF79BFE0546706A8007BE
:101A800000F18C80FEF794FE401B0228F6D92AE173
:101A9000F06910F0805808D1F06940F08050F06192
:101AA000F06900F080500090009847F20007C4F2FF
:101AB00000073868C00529D4386840F48070386061
:101AC000FEF776FE054600BF3868C0051ED4FEF757
:101AD0006FFE401B6428F7D905E100BF206900288C
:101AE00040F20000C4F2422000F082800121016037
:101AF000FEF75EFE054600BF306880073FF588AF01
:101B0000FEF756FE401B0228F6D9ECE0E0680028FC
:101B100000F08080052800F09780012800F0988070
:101B2000306A20F001003062306A20F0040092E058
:101B30000020C4F242200021C0F88014FEF738FED5
:101B4000054600BF706A80077FF56CAFFEF730FE78
:101B5000401B0228F6D9C6E00027C4F24227002025
:101B60003866FEF725FE022D05460BD13068800150
:101B700040F1BE80FEF71CFE401B02284FF0030020
:101B8000F4D968E7306880017FF564AFFEF710FE96
:101B9000401B02284FF00300F4D95CE740F2080034
:101BA000C2F20000006844F6D351C1F26201A0FB0A
:101BB0000101480A019000BF00BF0198411E0028A2
:101BC00001913FF42FAF00BF0198411E0028019101
:101BD0003FF428AF00BF0198411E002801913FF457
:101BE00021AF00BF0198411E00280191E4D119E7FF
:101BF00000210160FEF7DCFD054600BF306880076C
:101C00007FF50DAFFEF7D4FD401B02284FF0030017
:101C1000F4D920E7306A20F001003062306A20F009
:101C200004003062FEF7C4FD054641F2883700BF6C
:101C3000306A800720D5FEF7BBFD401BB8424FF04D
:101C40000300F5D907E700BF306A40F004003062B6
:101C5000306A40F001003062FEF7AAFD054641F20D
:101C6000883700BF306A800706D4FEF7A1FD401B0D
:101C7000B842F7D937E000BFB8F1000F7FF4D5AE16
:101C8000F06920F08050F061CFE600BF306820F4AA
:101C900080303060306820F480203060FEF788FDAE
:101CA000054600BF306880037FF59DAEFEF780FDDE
:101CB000401B64284FF00300F4D9CCE6306840F4B0
:101CC00080203060306840F480303060FEF770FD76
:101CD000054600BF306880033FF585AEFEF768FD1E
:101CE000401B6428F6D9032002B0BDE8F08100BF94
:101CF000206AB0F5803F05D17168A26821F40031F7
:101D0000114371607168626A21F4741111430843D0
:101D1000706001203866FEF74BFD04463068800194
:101D20003FF598AEFEF744FD001B02284FF003007C
:101D3000F4D990E690F851007047000070B538B1C2
:101D40000446406A30B10020206104F1140007E02D
:101D5000012070BD6068B0F5827F03D004F11C00E3
:101D6000002101600026A66294F8510020B92046A7
:101D700084F8506000F038F8022084F8510094E8AC
:101D8000071001F48271036802F4044223F0400357
:101D90000360236911440CF40062114403F0020251
:101DA0006369114403F00102A369E569114403F476
:101DB0000072114405F03802256A114405F08002D2
:101DC000A56A114305F4005211430160042101EAA0
:101DD00013414160C16921F40061C1610120666560
:101DE00084F85100304670BD70B586B040F60004EE
:101DF000C4F20104006804F52051002688420496CC
:101E000002D006B070BD00BF41F21800C4F202005B
:101E1000016802AD41F480510160016801F4805114
:101E200001910199016841F00401016000682946AF
:101E300000F0040001900198A0200290022003907D
:101E4000032005902046FEF79FFB4020CDE90206C7
:101E5000204629460496FEF797FB06B070BD0000A9
:101E60002DE9F04381B0044640681D461746B0F5A1
:101E7000827F0E4601D1A068E0B394F8500001289B
:101E800004D1022001B0BDE8F08300BF4FF001098A
:101E900084F85090FEF78CFC94F85110012927D15A
:101EA0008046002E4FF0010018BF002F00F0C980BF
:101EB0000420002184F851006165A663A787E787A5
:101EC0002163A186E186A2682068B2F5004F2164F3
:101ED00061644BD00168490653D5E168E08F002961
:101EE00057D0002800F08680681C1CD12DE000BF70
:101EF0000220A6E0042084F85100204631463246F4
:101F00003B46009500F090F901B0BDE8F08300BFBA
:101F1000C068A16B21F8020BA163E08F0138E08754
:101F2000E08F002866D020688168C907F0D1FEF7ED
:101F30003FFCA0EB0800A842F2D3032081E000BFE1
:101F4000FEF736FCE08F002854D020688168C9076E
:101F5000F6D0C068A16B21F8020BA163E08F0138B5
:101F6000E087E08F0028F0D144E000BF016821F055
:101F700040010160016821F4804101600168490667
:101F8000ABD4016841F040010160E168E08F0029B5
:101F9000A7D178B3681C0CD11CE000BF007BA16BFB
:101FA0000870A06B0130A063E08F0138E087E08FFC
:101FB00000B320688168C907F0D1FEF7F9FBA0EBF8
:101FC0000800A842F3D303203BE000BFFEF7F0FB7C
:101FD000E08F78B120688168C907F7D0007BA16BDA
:101FE0000870A06B0130A063E08F0138E087E08FBC
:101FF0000028EFD16068B0F5827F11D1A068B0F5FC
:10200000004F02D0B0F5806F0AD12168B0F5806F23
:102010000A6822F040020A6002D12046012101E054
:10202000204680212A46434601F000FC28B1606D1D
:1020300040F02000606520206065606D002818BFBA
:102040000120002184F8519084F8501001B0BDE8BF
:10205000F08300002DE9F04381B0044690F8500071
:10206000012803D1022001B0BDE8F0834FF001093F
:102070001D4616460F4684F85090FEF799FB94F8DB
:102080005110012944D18046002F4FF0010018BFA4
:10209000002E00F0C0800320002184F8510061650B
:1020A0002763A686E686A163A187E187A0682164ED
:1020B000B0F5004F2068616407D1016821F040014C
:1020C0000160016841F4804101600168490603D460
:1020D000016841F0400101606168731EE268B1FA75
:1020E00081F1B3FA83F349095B09B2F5006F41EA64
:1020F00003013BD131B137F8021BC1602763E08E89
:102100000138E086E08E00286AD0681C0DD11CE002
:10211000022080E0216B31F8022BC2602163E08E47
:102120000138E086E08E00285AD02068816889074F
:10213000F0D4FEF73DFBA0EB0800A842F2D338E054
:10214000FEF736FBE08E00284AD0206881688907B8
:10215000F6D5216B31F8022BC2602163E08E013885
:10216000E086E08E0028F0D13AE000BF39B139783E
:102170000173206B01302063E08E0138E086E08E31
:1021800070B3681C0BD11BE0216B09780173206BC5
:1021900001302063E08E0138E086E08E00B32068D5
:1021A00081688907F0D4FEF703FBA0EB0800A84282
:1021B000F3D303202FE000BFFEF7FAFAE08E78B1E8
:1021C000206881688907F7D5216B09780173206B36
:1021D00001302063E08E0138E086E08E0028EFD1E8
:1021E000204680212A46434601F020FB28B1606D3D
:1021F00040F02000606520206065A06838B90020AC
:1022000000902068C1680091806800900098606D1F
:10221000002818BF0120002184F8519084F8501044
:1022200001B0BDE8F08300002DE9F04381B0044621
:1022300090F85000012803D1022001B0BDE8F083DE
:1022400001201E4615460F4684F85000FEF7B0FAEE
:1022500094F85110814601290CD06068B0F5827F56
:1022600040F0A080A06800284FF0020008BF0429B9
:1022700040F09980002F4FF0010018BF002D00F0B2
:102280009280002E00F08F8094F8510000210428E5
:102290001CBF052084F851006165A563E687A68709
:1022A0002763E6862068A686216461640168490682
:1022B00003D4016841F0400101606168731EE26867
:1022C000B1FA81F1B3FA83F3DDF8208049095B09A3
:1022D000B2F5006F41EA03016ED131B137F8021B4C
:1022E000C1602763E08E0138E086012518F1010006
:1022F00031D101E0FEF75CFAE08E18B9E08F0028DA
:1023000000F0C2802068816889070CD5E18E51B148
:10231000012D08D1216B002531F8022BC260216309
:10232000E18E0139E1868168C907E3D0E18F002998
:10233000E0D0C068A16B012521F8020BA163E08FFA
:102340000138E087D6E700BFFEF732FAA0EB0900BC
:10235000404580F0A980E08E18B9E08F002800F099
:1023600093802068816889070CD5E18E51B1012DD9
:1023700008D1216B002531F8022BC2602163E18E68
:102380000139E1868168C907DED0E18F0029DBD001
:10239000C068A16B012521F8020BA163E08F013811
:1023A000E087D1E70220012184F85110002184F850
:1023B000501001B0BDE8F08339B139780173206B5A
:1023C00001302063E08E0138E086012518F101001C
:1023D00032D101E0FEF7ECF9E08E10B9E08F002871
:1023E00052D02068816889070ED5E18E61B1012D38
:1023F0000AD1216B002509780173216B2068013116
:102400002163E18E0139E1868168C907E2D0E18F5D
:102410000029DFD0C068A16B01250870A06B0130D6
:10242000A063E08F0138E087D4E700BFFEF7C0F972
:10243000A0EB0900404539D2E08E08B9E08F18B30F
:102440002068816889070ED5E18E61B1012D0AD11E
:10245000216B002509780173216B2068013121630C
:10246000E18E0139E1868168C907DFD0E18F00295B
:10247000DCD0C068A16B01250870A06B0130A0639F
:10248000E08F0138E087D1E72046802142464B4665
:1024900001F0CCF960B1606D40F020006065202053
:1024A000606501207FE700BF03207CE703207AE717
:1024B000A06800284FF000007FF475AF00902168FD
:1024C000CA6800928968009100996CE7411E00205B
:1024D000B0EB116F1CBF012070474EF21002CEF21C
:1024E000000251604EF62351CEF20001F0230B7032
:1024F000072190601160704770470000704700002E
:10250000B0B582B0026805461068D368546900F01F
:102510002F01202903F0200106D129B1284602B05D
:10252000BDE8B04001F000BA5FEA007C1EBF04F0D5
:10253000010E03F4907414EB0E0453D1296B01299E
:1025400005D110F0100118BF13F0100136D10106AB
:1025500022D513F080011FD095F83D0021283FD1EE
:10256000A868B0F5805F03D12869002800F0F880E2
:10257000286A411C296200785060E88C0138010407
:10258000E8842DD1D06820F08000D060D06840F081
:102590004000D06002B0B0BD400621D513F040002D
:1025A0001ED0D068202120F04000D060284685F859
:1025B0003D1002B0BDE8B04000F064BA00200190C8
:1025C000106801905068019001985069400611D43C
:1025D000A88DE98DEB8D002B18BF884240F0A680B6
:1025E00002B0B0BDC40718BF13F480732CD14307E9
:1025F00030D436E0A86B01684B689CB2002CEFD059
:10260000A98D8C42ECD2EB858369202B17D0D16841
:1026100021F48071D160516921F00101516151694A
:1026200021F040015161202185F83E1000212963ED
:10263000D16821F01001D160FDF754FEA98DE88D1D
:10264000081A81B2284685E02B6C43F001032B6405
:10265000430706D5BEF1000F03D02B6C43F00203F5
:102660002B64830706D5BEF1000F03D02B6C43F01B
:1026700004032B64BCF1000F09D541EA0E03B3FA41
:1026800083F35B0903D12B6C43F008032B642B6CA1
:10269000002BA5D010F0200018BF002903D0284639
:1026A00001F042F92A685069296C00F0400001F0FD
:1026B000080140182CD0D06820F49070D060506988
:1026C00020F001005061286B012803D1D06820F070
:1026D0001000D060202085F83E000020286350695B
:1026E00040061DD5506920F040005061A86BB8B17C
:1026F00043F61D11C0F600014163FDF717FE0028E7
:102700003FF46EAFA86B416B02B0BDE8B040084724
:102710002846FFF7F3FE0020286402B0B0BD00BFDA
:10272000284602B0BDE8B040FFF7E8BED368401AC3
:1027300023F49073D360536981B223F00103536192
:10274000202385F83E3000232B63D368284623F0EE
:102750001003D36002B0BDE8B040FFF7CDBE00BFAC
:10276000286A30F8021B6FF35F215160286204E78A
:10277000002804BF0120704710B5044690F83D00C2
:1027800028B9002084F83C00204600F061F824209D
:1027900084F83D002068D4E90212C36823F4005392
:1027A000C360036923F440531A430261D4E904234C
:1027B0001143C268194341F20C639A431143C1604B
:1027C0004169A26921F44071114343F60002C4F249
:1027D00001029042416103D0FFF7AAF802E000BF76
:1027E000FFF7BAF86268192148439100B0FBF1F095
:1027F00048F21F51C5F2EB11A0FB01235A094FF615
:102800009C73C0F6FF7302FB0300322303EB00103E
:10281000A0FB0101F02303EA5113206803EB02122D
:10282000C1F3431111448160016921F490410161B8
:10283000416921F02A014161C16841F40051C16040
:1028400000202021206484F83D1084F83E1010BD43
:1028500070B586B040F60004C4F20104006804F5C7
:10286000405100268842049602D006B070BD00BFD9
:1028700041F21800C4F20200016802AD41F4804147
:102880000160016801F4804101910199016841F002
:10289000040101600068294600F0040001900198DD
:1028A0004FF4007002900220039003200590204610
:1028B000FDF76AFE4FF48060CDE902062046294606
:1028C0000496FDF761FE252000210022FEF714FF8B
:1028D0002520FEF7FDFE06B070BD00007047000029
:1028E0002DE9F041044690F83D0020280ED10D4618
:1028F00000294FF0010000F08E801646002A08BF24
:10290000BDE8F08194F83C00012803D10220BDE825
:10291000F08100BF012084F83C00002020642120C9
:10292000984684F83D00FDF743FFA684E684A1683D
:102930000646B1F5805F03D12069002800F0A08031
:102940002F460025002084F83C00E08CE0B118F10F
:1029500001001BD0B8F1000F60D120680BE000BF70
:1029600035F8021B00276FF35F214160E18C0139CC
:10297000E184E18C51B3016809066DD5002FEFD0D9
:1029800017F8011BF1E700BF20681FE0206802E094
:102990000168090609D40168090606D40168090618
:1029A0005CBF01685FEA0161F2D51FB117F8011B36
:1029B00005E000BF35F8021B00276FF35F2141607F
:1029C000E18C0139E184E18C0029E4D101684906F8
:1029D0001DD4B8F1000F3FD018F101010ED10168EC
:1029E000490614D4016849065CBF01685FEA416189
:1029F0000DD401684906F2D509E000BFFDF7D8FE05
:102A0000811B2068414527D800684006F6D5202064
:102A100084F83D000020BDE8F08100BF206800BFC1
:102A20000168090606D4FDF7C3FE811B20684145F5
:102A3000F6D911E017B117F8011B04E035F8021BB5
:102A400000276FF35F214160E18C0139E184E18C63
:102A50000029E5D1BAE700BFC16821F4D071C16097
:102A6000416921F001014161202084F83D0084F892
:102A70003E00002084F83C000320BDE8F08100BF48
:102A800000275FE770470000FEE7000040F2EC001F
:102A9000C2F20000FDF796BE40F2EC00C2F2000068
:102AA000FDF736BF10B581B000210091406A40F2B9
:102AB0000801C2F2000190F83DC009684BF289524A
:102AC000C908C1F2F842A1FB0212110A23225143A4
:102AD0000091009911B300990139009101680968CA
:102AE00089051FD50099C9B1009901390091016884
:102AF0000968890516D5009981B1009901390091BD
:102B00000168096889050DD5009939B10099013925
:102B10000091016809688905DBD403E0016C41F08C
:102B200020010164446B4FF0000E002C1CBF0021FB
:102B3000A162816B00291CBF00228A620268002CFE
:102B4000136823F480631360A0F82AE018BFC4F868
:102B500034E000291CBF00234B63116821F0010100
:102B6000116090F83D1060290CD1202180F83D10B3
:102B7000002180F83E10016401B0BDE81040FDF76F
:102B80001DBE00BF0CF02801282911D1116841F0A9
:102B900001011160116841F480611160002101633D
:102BA000282180F83D1001B0BDE81040FEF7DEB9E5
:102BB000202180F83D10002180F83E1001B0BDE8D2
:102BC0001040FEF7D3B9000010B5044690F83D1050
:102BD00090F83E00B0F1100218BF0122403818BF33
:102BE0000120024208BF222934D001F02800282801
:102BF0003AD100202063282084F83D0020684168F5
:102C0000090542D5416821F400614160606B90F88C
:102C10002110012958D1A06B42F6A521C0F6000170
:102C20004163FDF783FB002861D0206841694906B4
:102C300006D50069616A0870616A206801316162C5
:102C4000016821F001010160202084F83D00A06BA3
:102C50004BE000BF2068026822F400620260426814
:102C6000120505D50CE000BF20684268120507D4A4
:102C7000602905D0202184F83D10002184F83E1001
:102C80000021216341680905BCD494F83D106029F6
:102C900050D1202184F83D1000212164416949066A
:102CA00006D50069616A0870616A20680131616255
:102CB000016821F0010101602046FDF77FFD206CD5
:102CC000000717D11BE000BF42F6A521C0F60001A6
:102CD0004163FDF72BFB50B12168606B0A6822F05D
:102CE00001020A60202184F83D10416B8847206C66
:102CF000000704D02068416821F4E061416094F845
:102D00003D00216C490758BF10BD282810D1002074
:102D1000CFF6FF70E06200212020216384F83D009F
:102D2000204684F83E10BDE81040FEF7DDB900BF34
:102D300010BD00BF4169490605D50069616A087088
:102D4000606A013060622046FEF710F9206C0007CF
:102D5000D0D1D4E7C16A428D042A07D10168426A02
:102D60004B6823F480634B60096911E0428D032AAC
:102D700016D102680229536823F48063536005D09A
:102D8000042903D0116821F4806111601169426A3D
:102D90001170416A01314162418D013941857047AD
:102DA000428D022A12D101390F2919D8DFE801F02A
:102DB00008121812181818181818181818181808BF
:102DC00001680A6822F480620EE000BF0168426A6E
:102DD000CAE700BF01680A6842F4806204E000BFED
:102DE00001680A6842F400720A600969426A117057
:102DF000416A02684B1C4362438D013B4385126963
:102E00004A70416A026801314162418D0139418550
:102E1000516821F440715160202180F83D1090F8F4
:102E20003E200021402A80F83E1003D10163FEF7C6
:102E30009DBB00BF12210163FEF758B981B090F825
:102E40003D10222972D1418D042913D30168426AB1
:102E500009691170416A01314162418D0139418531
:102E6000418D032962D10068416821F4806141608D
:102E70005CE000BFC26A022A58D0012956D800215E
:102E8000009140F20801C2F2000109684BF2895238
:102E9000C908C1F2F842A1FB0212110A01EB81013B
:102EA00000910099013900910099002940D00168F2
:102EB0000A6892051AD50099013900910099B9B3B1
:102EC00001680A68920511D50099013900910099AD
:102ED00071B301680A68920508D50099013900911B
:102EE000009929B301680A689205DAD40A6822F4C5
:102EF00080620A604A6822F4E0624A600969426AB4
:102F00001170416A01314162418D013941852021B1
:102F100080F83D1090F83E200021402A80F83E10B5
:102F200022D1016301B0FEF721BB00BF01B07047A1
:102F3000016C41F0200101640168426A4B6823F48E
:102F4000E0634B6009691170416A01314162418D52
:102F500001394185202180F83D10002180F83E1084
:102F600001B0FEF703B800BF1221016301B0FEF704
:102F7000BDB80000C16A90F83D20212A18BF7047F3
:102F8000428D4AB1416A026811F8013B1361416206
:102F9000418D01394185704711F5803F18BF0829DF
:102FA00018D101684A6822F4E0624A600A6842F473
:102FB00000720A6000212022016380F83D2090F811
:102FC0003E2080F83E10402A08BFFEF7D1BAFEF737
:102FD0008FB800BF2029E4D001684A6822F4E0627B
:102FE0004A6011210163002180F83E10202180F801
:102FF0003D10FEF77DB8000090F83D1090F83EC0FF
:10300000C26A038D002B08BF212919D0212905D0C0
:10301000BCF1400F08BF222900D07047418D69B331
:1030200090F83E10402908BF00F040B8416A02689D
:1030300011F8013B13614162418D013941857047AF
:1030400012F5803F18BF082A1ED101684A6822F491
:10305000E0624A600A6842F400720A60002120229D
:10306000016380F83D2090F83E2080F83E10402A11
:1030700008BFFEF77DBAFEF73BB800BF00684168A5
:1030800021F4806141607047202ADED001684A68DF
:1030900022F4E0624A6011210163002180F83E10B1
:1030A000202180F83D10FEF723B8000090F83D1075
:1030B000026D5AB1026D012A14D10168826CD2B23C
:1030C0000A61016D01310165704700BFC26C816CFE
:1030D000012A17D10268C9B21161016D023101657F
:1030E000704700BF026D022A18BF7047222911D114
:1030F00001680A6842F480720A60016D013101655D
:10310000704700BF0268C1F307211161016D0131F1
:10311000016512E0428D5AB1212909D1416A026844
:1031200011F8013B13614162418D013941857047BE
:10313000428D002A08BF212900D0704701684A68E3
:1031400022F4E0624A600A6842F400720A600021D8
:103150002022016380F83D2080F83E10FEF708BA77
:10316000F0B585B00446CD2004FB00F1CD0A05FB87
:1031700000F2D20A42EA8202A5EB42062922624309
:10318000120B0A2C3CBFCA0A00265043C00A40EA70
:103190008000A2EB4007380618D0380143F63D11F5
:1031A000ADF8081000F109010D308DF80A0040F269
:1031B000EC008DF80B104FF0FF3CC2F2000002AAA9
:1031C0004E210423CDF800C0FDF794FF47EA060026
:1031D000000617D0300143F63D11ADF80C1000F198
:1031E00009010D308DF80E0040F2EC008DF80F1043
:1031F0004FF0FF37C2F2000003AA4E2104230097CC
:10320000FDF778FF05EB8500A4EB4000000143F6D5
:103210003D11ADF8101000F109010D308DF81200CC
:1032200040F2EC008DF813104FF0FF37C2F20000AF
:1032300004AA4E2104230097FDF75CFF05B0F0BD02
:103240002DE9F04383B001250DF10A010DF10B03C7
:10325000012204468DF80A50009500F0A3F99DF86C
:103260000B00002700F0F8004FF081088DF80B00EC
:103270000DF10A010DF10B0320460122E7618DF8E3
:103280000A80009500F0A0FA0A20FDF7A9F80DF1D8
:103290000A010DF10B03204601228DF80A5000951A
:1032A00000F080F99DF80B600A20FDF799F846F0D0
:1032B00080008DF80B000DF10A010DF10B03204683
:1032C00001228DF80A80009500F07EFA6420FDF757
:1032D00087F8266A8621B0088DF80A108DF80B0051
:1032E0000DF10A010DF10B0320460122009500F0BB
:1032F0006BFA0520FDF774F8B00187218DF80A10EC
:103300008DF80B000DF10A010DF10B03204601228F
:10331000009500F059FA0520FDF762F888208DF835
:103320000A000DF10A010DF10B03204601228DF870
:103330000B70009500F048FA0520FDF751F894F85D
:103340002A0089218DF80A108DF80B000DF10A0171
:103350000DF10B0320460122009500F035FA0A20FA
:10336000FDF73EF894F82B00CD222D2898BF2D2094
:10337000F02828BFF020A0F12D01C9B2514300F17F
:103380001E024CF6CD435A43D20C792838BF8A0A24
:1033900002F120008B218DF80A108DF80B000DF141
:1033A0000A010DF10B0320460122009500F00CFAF2
:1033B0000A20FDF715F88C208DF80A0023208DF8DF
:1033C0000B000DF10A010DF10B03204601220095BF
:1033D00000F0FAF91E260DF10A010DF10B0320464B
:1033E00001228DF80A60009500F0DCF89DF80B00D2
:1033F0004FF09E0940F007008DF80B000DF10A0117
:103400000DF10B03204601228DF80A90009500F083
:10341000DBF90A20FCF7E4FF94F824700DF10A01AF
:103420000C2FA8BF0C270DF10B0320460122072FFC
:10343000D8BF07278DF80A60009500F0B3F89DF813
:103440000B600A20FCF7CCFF06F00F0040EA0710E3
:103450008DF80B000DF10A010DF10B03204601223E
:103460008DF80A90009500F0AFF90A20FCF7B8FF3C
:103470009F208DF80A00FF208DF80B000DF10A0146
:103480000DF10B0320460122009500F09DF994F800
:10349000260094F82510400000EB01109D218DF8C6
:1034A0000A108DF80B000DF10A010DF10B032046F7
:1034B0000122009500F088F994F82900A0218DF8E8
:1034C0000A108DF80B000DF10A010DF10B032046D7
:1034D0000122009500F078F994F82800A1218DF8D8
:1034E0000A108DF80B000DF10A010DF10B032046B7
:1034F0000122009500F068F940208DF80A000DF1D6
:103500000A010DF10B0320460122009500F04AF854
:103510009DF80B00C02140F03F008DF80A108DF897
:103520000B000DF10A010DF10B032046012200955D
:1035300000F04AF90DF10A010DF10B0320460122BA
:103540008DF80A50009500F02DF89DF80B000DF154
:103550000A0100F0F80001308DF80B000DF10B03AB
:1035600020460122E5618DF80A80009500F02CF9D3
:103570000A20E561FCF734FF42208DF80A000DF1C6
:103580000A010DF10B0320460122009500F00AF814
:103590009DF80B104FF4CA70122908BFC82003B061
:1035A000BDE8F0832DE9F04104461746A288006883
:1035B000069E0D46114600229846FDF7F3F8A069D5
:1035C00029463A464FF4FA63FEF744FDA069FEF738
:1035D000B1FB0128FAD1A069414632464FF4FA63A3
:1035E000FEF73EFCA069FEF7A5FB0128FAD1206892
:1035F000A1880122BDE8F041FDF7D4B82DE9F04FD4
:1036000083B01646894604461AB148463146FCF74F
:10361000DBFD01270DF10A010DF10B03204601220C
:103620008DF80A700097FFF7BDFF9DF80B0081250C
:1036300000F0F80001308DF80B000DF10A010DF1DA
:103640000B0320460122E7618DF80A50009700F035
:10365000BBF812208DF80A000DF10A010DF10B03E1
:10366000204601220097FFF79DFF9DF80B004006C2
:1036700002D44FF000085FE092208DF80A00FF208E
:103680008DF80B000DF10A010DF10B03204601220C
:10369000009700F099F813208DF80A000DF10A0147
:1036A0000DF10B03204601220097FFF77BFF10204E
:1036B0009DF80B808DF80A000DF10A010DF10B0346
:1036C000204601220097FFF76DFF9DF80B008D212A
:1036D0008DF80A108DF80B000DF10A010DF10B03A6
:1036E00020460122009700F06FF8464538BFB046EB
:1036F000B8F1000F4FF0000B1CD0A9F101074FF0FB
:1037000001090DF10A050DF10B06C24620462946B6
:10371000012233468DF80AB0CDF80090FFF742FF42
:103720009DF80B00BAF1010A07F8010FEED101274D
:10373000812501E04FF000080DF10A010DF10B03A6
:10374000204601228DF80A700097FFF72BFF9DF8A5
:103750000B00052100F0F8000530E1618DF80B0049
:103760000DF10A010DF10B03204601228DF80A50DC
:10377000009700F029F8404603B0BDE8F08F000044
:10378000B0B582B0012501A90DF10503012204465F
:103790008DF804500095FFF705FF9DF80500052101
:1037A00000F0F8000530E16181218DF806108DF8F8
:1037B00007000DF106010DF10703204601220095D7
:1037C00000F002F802B0B0BD2DE9F0410446174602
:1037D000A2880068069E0D46114600229846FCF716
:1037E000E1FFA06929463A464FF4FA63FEF732FC3E
:1037F000A069FEF79FFA0128FAD1A0694146324636
:103800004FF4FA63FEF726FCA069FEF793FA01284D
:10381000FAD12068A1880122BDE8F041FCF7C2BFBF
:10382000FEE70000FEE70000704700002DE9F041D0
:1038300082B01E4690460D460446FCF7B9FF301A8A
:1038400000EB0807FCF7B4FF40F20801C2F20001E8
:103850000968C1F3CB317943019121688A682A4014
:10386000AA4227D1064618F101001FD0FCF7A0FF9D
:10387000801BB84222D2019801990028A1F10101D0
:1038800001912168896808BF074601EA0500A8423E
:10389000ECD00FE088682840A8420BD18868284007
:1038A000A84207D188682840A84203D188682840E8
:1038B000A842EFD0002002B0BDE8F081D4E90001B9
:1038C0004268B1F5827F22F0E00242600AD1A1682D
:1038D000B1F5004F02D0B1F5806F03D1016821F03E
:1038E00040010160A16AB1F5005F07D1016821F4D0
:1038F00000510160016841F400510160012084F829
:103900005100002084F85000032002B0BDE8F0818F
:1039100070470000FDF774BE70470000406A002148
:10392000C185C184FEF7EABD81B090F83E1022291E
:1039300021D183680246B3F5805F09D152F8281F70
:1039400052F8183C002B3FD003685B680AE000BFC8
:1039500052F8281F13B90369002BF5D003685B6880
:1039600003F07F030B70116801311160C18D0139C3
:103970000A04C18502D001B0704700BF0168CA685F
:1039800022F02002CA60CA6822F48072CA604A69C2
:1039900022F001024A61202280F83E20026B012AB7
:1039A0001AD100220263CB6823F01003CB600B68AE
:1039B000DB0605D500920A680092496800910099DB
:1039C000818D01B0FEF798BD026852686FF35F22E7
:1039D00021F8022B8162C9E701B0FEF77FBF00002A
:1039E00040F2A800C2F20000FEF78ABDFEE7000028
:1039F00092B0FDF713FE00240120CDE90744CDE984
:103A00000544029006904FF4E0104FF480310225F7
:103A10000B9002A8CDE90314CDE90951FDF7B0FFE1
:103A200020B1EFF3108072B6FEE700BF0F20CDE9A2
:103A30000D054FF480660DA802210F94CDE91064A6
:103A4000FDF796FE20B1EFF3108072B6FEE700BFDF
:103A500041F21800C4F20200016840F6004441F04F
:103A6000200101600168C4F2010401F0200102910B
:103A700002990168012241F00401016001680325F7
:103A800001F00401029102990168012741F0080147
:103A900001600068032100F00800029002982046AF
:103AA000FCF780FECDE90257022002AD0027059009
:103AB000204629460497FCF767FD0020C1F211005B
:103AC000CDE90307204629460296FCF75DFD282034
:103AD00000210022FDF710FE2820FDF7F9FD40F23D
:103AE000401504F51050C2F200054FF4827185E8CC
:103AF00083000A204FF400721023C5E90A7028469B
:103B0000C5E90377C5E90572EB61C5E90877FEF7FA
:103B100015F928B1EFF3108072B600BFFEE700BFC1
:103B200040F27006C2F2000604F53051304640F80B
:103B3000381F4FF4E1310C22C0E90117C0E90377C7
:103B4000C0E90527C761FEF713FE28B1EFF3108027
:103B500072B600BFFEE700BF40F2EC00A4F53841AA
:103B6000C2F2000000234FF480474FF47A7280E8DD
:103B70000E00C0E90337C0E90533C0E90733FDF79C
:103B8000F7F928B1EFF3108072B600BFFEE700BF6F
:103B900002A800F0C7F8DDE902C1DDE9070E04AFB5
:103BA0003161C6E9080EDDE90B018CCFDDE9098939
:103BB000C6E90C0101207261B361F761C6E90A89A7
:103BC00037463082022047F80CCF30834FF48060B4
:103BD000308438463C607461F4617562FFF730FBF5
:103BE000307006F13800314601224FF6FF73FEF7C0
:103BF00077FE3846FFF7C4FD43F63C0040F2EC0484
:103C0000C0F60C00C2F2000402904FF0FF3602AA88
:103C100020464E2104230096FDF76CFA40F60C0076
:103C2000C2F62C00029002AA20464E2104230096E0
:103C3000FDF760FA40F60C00CCF6CC00029002AA28
:103C400020464E2104230096FDF754FA40F60C005E
:103C5000C1F61C00029002AA20464E2104230096C1
:103C6000FDF748FA46F66D10CCF6CD1002AD029085
:103C700020464E212A4604230096FDF73BFA46F6DD
:103C80006D10C3F63D10029020464E212A460423B3
:103C90000096FDF72FFA46F66D10C4F64D1002900F
:103CA00020464E212A4604230096FDF723FA42F6C9
:103CB0002D10C0F60D10029020464E212A460423F6
:103CC0000096FDF717FA46F66D17C9F69D172046C0
:103CD0004E212A46042302970096FDF70BFA46F67A
:103CE0006D10CEF6ED10029020464E212A46042398
:103CF0000096FDF7FFF920464E212A46042302973D
:103D00000096FDF7F7F947F67D10C4F64D100290C6
:103D100020464E212A4604230096FDF7EBF900BF0A
:103D2000FEE7000040F2B111016240F207718184A8
:103D3000012180F826100821C6F2FF4181627047F8
:103D40000102000000000000000001020304060759
:103D5000080900000000010203040203040506072D
:103D600008090A0B0C0D0E0F10100000903D000802
:103D7000000000201000000028010008A03D0008FD
:103D8000100000209007000044010008000000001F
:103D900001000000100000000024F40000000000FA
:04000005080000ED02
:00000001FF
