:020000040800F2
:10000000B807002089010008012A00081123000810
:10001000FD29000845020008D52B0008000000005B
:10002000000000000000000000000000ED2A0008B1
:100030003D06000800000000052A0008F12A00081B
:10004000A3010008A3010008A3010008A301000800
:10005000A3010008A3010008A3010008A3010008F0
:10006000A3010008A3010008A3010008A3010008E0
:10007000A3010008A3010008A3010008A3010008D0
:10008000A3010008A3010008A3010008A3010008C0
:10009000A3010008A3010008A3010008A3010008B0
:1000A000A3010008A3010008A3010008A3010008A0
:1000B000F92A0008A3010008A3010008A301000811
:1000C000A3010008A3010008A3010008A301000880
:1000D000A3010008C92B0008A3010008A301000820
:1000E00041060008A3010008A301000800F002F87F
:1000F00000F03AF80AA090E8000C82448344AAF188
:100100000107DA4501D100F02FF8AFF2090EBAE885
:100110000F0013F0010F18BFFB1A43F0010318473B
:10012000EC2F00000C300000103A24BF78C878C1D2
:10013000FAD8520724BF30C830C144BF04680C60ED
:10014000704700000023002400250026103A28BF35
:1001500078C1FBD8520728BF30C148BF0B60704739
:100160001FB51FBD10B510BD00F031F81146FFF7E7
:10017000F7FF02F031FD00F04FF803B4FFF7F2FF94
:1001800003BC00F057F800000948804709480047C1
:10019000FEE7FEE7FEE7FEE7FEE7FEE7FEE7FEE737
:1001A000FEE7FEE704480549054A064B7047000094
:1001B000F52A0008ED000008B8010020B80700206B
:1001C000B8030020B8030020704770477047754699
:1001D00000F02CF8AE4605006946534620F00700B3
:1001E000854618B020B5FFF7DDFFBDE820404FF091
:1001F00000064FF000074FF000084FF0000BAC4630
:10020000ACE8C009ACE8C009ACE8C009ACE8C0097A
:1002100021F007018D46704710B50446AFF300800A
:100220002046BDE81040FFF7A8BF00000048704717
:100230001000002001491820ABBEFEE72600020096
:1002400070470000FEE700002DE9F04784B08046CB
:100250004FF04340C8E9000088794FF47A750C46A6
:10026000002808BF4FF4FA6500F0A4FBA16849B16B
:10027000401AA84206D2D4E90310C8E9000104B02C
:10028000BDE8F08700F096FB421C2068A188A260C0
:10029000012200F089FBA088E17900901120CDE9CE
:1002A0000101032120680391694600F069FA206882
:1002B000A1880022002500F077FB122000F03EFA12
:1002C0002068A188012200F06FFBA088E179CDE9C8
:1002D00000052068E94602914946039500F050FA6E
:1002E00042F21076EFF3108072B600BF2068A1884A
:1002F00000F054FB01280BD1B54205F10105F5D3FF
:1003000062B64FF04340C4E9030004B0BDE8F08793
:10031000002542F2107600BF2068A18800F03EFB65
:1003200001280BD0B54205F10105F5D362B64FF0B7
:100330004340C4E9030004B0BDE8F087002542F261
:10034000107600BF2068A18800F028FB012807D1A3
:10035000B54205F10105F5D362B604B0BDE8F087FA
:100360004FF6FF774FF0000A8DF804A0CDF800A0FB
:1003700006E000BF0AF1010ABAF1050F00F004819E
:10038000002200BF2068A188164600F007FB012864
:1003900003D0BE4206F10102F4D100222068A188F8
:1003A000154600F0FBFA012803D1BD4205F1010218
:1003B000F4D1B54205D919F80A0040F0800009F8D7
:1003C0000A0000222068A188164600F0E7FA0128FA
:1003D00003D0BE4206F10102F4D100222068A188B8
:1003E000154600F0DBFA012803D1BD4205F10102F8
:1003F000F4D1B54205D919F80A0040F0400009F8D7
:100400000A0000222068A188164600F0C7FA0128D9
:1004100003D0BE4206F10102F4D100222068A18877
:10042000154600F0BBFA012803D1BD4205F10102D7
:10043000F4D1B54205D919F80A0040F0200009F8B6
:100440000A0000222068A188164600F0A7FA0128B9
:1004500003D0BE4206F10102F4D100222068A18837
:10046000154600F09BFA012803D1BD4205F10102B7
:10047000F4D1B54205D919F80A0040F0100009F886
:100480000A0000222068A188164600F087FA012899
:1004900003D0BE4206F10102F4D100222068A188F7
:1004A000154600F07BFA012803D1BD4205F1010297
:1004B000F4D1B54205D919F80A0040F0080009F84E
:1004C0000A0000222068A188164600F067FA012879
:1004D00003D0BE4206F10102F4D100222068A188B7
:1004E000154600F05BFA012803D1BD4205F1010277
:1004F000F4D1B54205D919F80A0040F0040009F812
:100500000A0000222068A188164600F047FA012858
:1005100003D0BE4206F10102F4D100222068A18876
:10052000154600F03BFA012803D1BD4205F1010256
:10053000F4D1B54205D919F80A0040F0020009F8D3
:100540000A0000222068A188164600F027FA012838
:1005500003D0BE4206F10102F4D100222068A18836
:10056000154600F01BFA012803D1BD4205F1010236
:10057000F4D1B5427FF6FEAE19F80A0040F0010052
:1005800009F80A00F6E600BF62B69DF800009DF883
:1005900001109DF802709DF803500A183A442A444D
:1005A0009DF80430D2B29A4220D1A2794FFA87F94D
:1005B00032B3012A1AD141EA002002F099FC4CF62C
:1005C000CD41C3F6CC5102F0BFFC0646B9F1000F95
:1005D000C8F800001ED445EA072002F089FC4CF65A
:1005E000CD41C3F6CC5102F0AFFC1FE04FF04340C9
:1005F0004FF04346C4E9030604B0BDE8F08700BFEE
:1006000002F08EFC0646C8F800005FFA89F002F09E
:1006100087FC0BE009F07F0045EA002002F068FC4F
:100620004CF6CD41CBF6CC5102F08EFCC8F804005C
:10063000C4E9030604B0BDE8F0870000704700007D
:100640004FF4806000F090B8014690F82100022835
:1006500016D10868D1E90FC3026822F00E020260C9
:10066000026822F001020260012000FA03F2CCF8D5
:10067000042081F821000020002281F8202070470A
:10068000042088630120002281F8202070470000A8
:1006900080B590F82110022924D10268116821F058
:1006A0000E0111602F211368C4F202018A4240F248
:1006B0000401C4F2020123F00103136016DD3023AC
:1006C000C4F202039A421DD04423C4F202039A42A8
:1006D0001CD05823C4F202039A421DD14FF4803338
:1006E00022E000BF04218163012080BD0823C4F201
:1006F00002039A420ED01C23C4F202039A420BD189
:10070000102311E04FF480730EE000BF4FF48053CC
:100710000AE000BF012307E001F1680C4FF080738D
:10072000624508BF4FF480130B60416B4FF4807239
:10073000028401B18847002080BD0000B0B50446A6
:1007400000F038F9054640F20000C2F200000078DF
:10075000611C18BF044400BF00F02CF9401BA042EC
:10076000FAD3B0BD7047000040F21441C4F2010159
:100770000A68024214BF08607047FFF7F3BF000029
:100780002DE9F04F82B00E68002E00F0038140F298
:100790000C4C41F200424FF6FF7EC4F2010CC4F251
:1007A0000102042700240123C1F2100E4FF0000AB9
:1007B0004FF00009904208BF0327009745E000BFB3
:1007C000012704F00C030F229A402BEA020207FAD9
:1007D00003F34FEA9A051A4346F82520D1F804B0EE
:1007E00040F20045C4F201055FEACB322A6854BFEB
:1007F00022EA080242EA08022A606A685FEA8B334A
:1008000054BF22EA080242EA08026A605FEACB2388
:10081000AA6854BF22EA080242EA08025FEA8B2370
:10082000AA60DCF800204FF0010354BF22EA08025E
:1008300042EA0802CCF800200E680AF1010A36FAF2
:100840000AF204F1040400F0A58003FA0AF816EA9B
:10085000080FF1D04E68764512DC122E56D8DFE82C
:1008600006F0350B45495555555555555555555572
:100870005555554D510000BFD1F80C9046E000BFD2
:100880004FF6FF72C1F2210296420FDC0022C1F244
:10089000110296421AD00022C1F21202964215D0DD
:1008A0000022C1F22102964210D02FE00022C1F2B4
:1008B000220296420AD00022C1F23102964205D0AD
:1008C0000022C1F23202964220D100BF8A684AB1AA
:1008D000012A14BFC0F81480C0F810804FF0080936
:1008E00014E000BF4FF0040910E000BFCA6802F135
:1008F00008090BE04FF0000908E000BFCA6802F1E8
:10090000040903E0CA6802F10C0900BF224606464A
:10091000BAF1080F24BF203A043637680F259540F6
:1009200027EA050509FA02F22A433260CA79D2069B
:100930007FF582AF41F21803C4F202031A6842F055
:1009400001021A601A6802F001020192019A40F253
:100950000042C4F20102A2F57E762AF0030256F8A4
:1009600002B040F60002C4F20102904210D040F6FC
:100970000042C4F2010290423FF422AF41F2000271
:10098000C4F20102009F904208BF022719E700BF8E
:10099000002716E702B0BDE8F08F0000806808402D
:1009A00018BF012070470000002A08BF0904016138
:1009B0007047000040F2B010C2F2000000687047BB
:1009C00040F2000040F2B011C2F20000C2F2000199
:1009D00000780A68104408607047000080B542F251
:1009E0000000C4F20200016841F010010160032020
:1009F00000F08EF80F2000F005F800F027F8002036
:100A000080BD000070B540F20006C2F2000640F260
:100A100008013278C2F200014FF47A730968B3FB1F
:100A2000F2F20446B1FBF2F1084600F02FFF0F2C62
:100A30004FF0010508D838B94FF0FF3021460022A9
:100A4000002500F039F87460284670BD82B041F28C
:100A50001800C4F202000168022241F001010160A5
:100A6000016801F0010101910199416841F0805153
:100A70004160406800F08050009000980420C4F26B
:100A80000100016862F31A61016002B07047000062
:100A9000002848BF7047C1B200F01F00012202FACF
:100AA00000F04EF20012CEF2000242EAD10121F033
:100AB000030108607047000010B54EF60C5CCEF2E2
:100AC000000CDCF80030C3F3022E8EF00704042C77
:100AD00028BF0424BEF103034FF0FF3E0EFA04F4D6
:100AE00038BF0023A14399400EFA03F39A43114300
:100AF00000F00F0200F160430901043A03F564437A
:100B00006244002848BF02F10C03197010BD0000B8
:100B10004EF60C51CEF200010A684FF6FF031A4060
:100B200060F30A2242F0806040F0FD700860704778
:100B30002DE9F04381B0002800F0858042F20008E2
:100B4000C4F202080446D8F800000D4600F0070081
:100B500088420CD2D8F8000020F007002843C8F8DB
:100B60000000D8F8000000F00700A8426BD1206810
:100B700041F204098107C4F2020917D5410705D5DE
:100B8000D9F8001041F4E061C9F80010010705D55B
:100B9000D9F8001041F46051C9F80010D9F80010DC
:100BA000A26821F0F0011143C9F80010C00741D13B
:100BB000D8F8000000F00700A8420CD9D8F80000CF
:100BC00020F007002843C8F80000D8F8000000F023
:100BD0000700A84237D12068410707D5D9F800108F
:100BE000E26821F4E0611143C9F80010000708D55C
:100BF000D9F80000216920F4605040EAC100C9F82A
:100C00000000D9F8002002F00C00082841F2002072
:100C1000C0F27A0050D143F2FA03C2F38341C0F626
:100C20000003595CD2033BD440F60010C0F23D00F3
:100C3000484341E0606802280AD001282AD159F8C7
:100C4000041C890308D4012001B0BDE8F08300BF73
:100C500059F8041C8901F6D5D9F8001021F00301D8
:100C60000843C9F80000FFF7A5FE064641F28837A1
:100C7000D9F80000616800F00C00B0EB810F97D04C
:100C8000FFF798FE801BB842F2D9032001B0BDE8FF
:100C9000F08300BF59F8041C8907D4D5DCE700BFF6
:100CA000D9F8002043F2E003C2F34042C0F600034B
:100CB0009A5C4843B0FBF2F0D9F8001043F2E2022C
:100CC000C1F30311C0F60002515C40F2080220FAA1
:100CD00001F140F20400C2F200000068C2F200021A
:100CE0001160FFF78FFE002001B0BDE8F083000027
:100CF00040F2080041F20401C2F20000C4F2020115
:100D00000068096843F2F202C1F30221C0F6000252
:100D1000515CC8407047000040F2080041F20401F5
:100D2000C2F20000C4F202010068096843F2F20254
:100D3000C1F3C221C0F60002515CC84070470000F8
:100D40002DE9F04182B0002868D00446007841F2D5
:100D50000006C007C4F2020625D0706800F00C003F
:100D600004281BD0706800F00C00082802D17068BD
:100D7000C00313D46068002800F06881B0F5A02F8C
:100D800000F07C81B0F5803F00F07C81306820F479
:100D900080303060306820F4802076E13068800355
:100DA00001D56068D0B32078800718D5706810F03E
:100DB0000C0F07D0706800F00C0008286ED1706826
:100DC000C0036BD43068800702D52069012825D183
:100DD0003068616920F0F80040EAC1003060207896
:100DE00000071FD42078400732D4E56995B17068B8
:100DF00000F00C00082840F08F80012D0ED07068A4
:100E0000216A00F480328A4208D1616A00F47010CD
:100E1000884203D1002002B0BDE8F081012002B079
:100E2000BDE8F081A069002862D00020C4F2422011
:100E30000121C0F88014FFF7BDFD0546706A8007E8
:100E400000F18C80FFF7B6FD401B0228F6D92AE19D
:100E5000F06910F0805808D1F06940F08050F061DE
:100E6000F06900F080500090009847F20007C4F24B
:100E700000073868C00529D4386840F480703860AD
:100E8000FFF798FD054600BF3868C0051ED4FFF780
:100E900091FD401B6428F7D905E100BF20690028B7
:100EA00040F20000C4F2422000F082800121016083
:100EB000FFF780FD054600BF306880073FF588AF2B
:100EC000FFF778FD401B0228F6D9ECE0E068002827
:100ED00000F08080052800F09780012800F09880BD
:100EE000306A20F001003062306A20F0040092E0A5
:100EF0000020C4F242200021C0F88014FFF75AFD00
:100F0000054600BF706A80077FF56CAFFFF752FDA2
:100F1000401B0228F6D9C6E00027C4F24227002071
:100F20003866FFF747FD022D05460BD1306880017A
:100F300040F1BE80FFF73EFD401B02284FF003004A
:100F4000F4D968E7306880017FF564AFFFF732FDC0
:100F5000401B02284FF00300F4D95CE740F2080080
:100F6000C2F20000006844F6D351C1F26201A0FB56
:100F70000101480A019000BF00BF0198411E0028EE
:100F800001913FF42FAF00BF0198411E002801914D
:100F90003FF428AF00BF0198411E002801913FF4A3
:100FA00021AF00BF0198411E00280191E4D119E74B
:100FB00000210160FFF7FEFC054600BF3068800796
:100FC0007FF50DAFFFF7F6FC401B02284FF0030042
:100FD000F4D920E7306A20F001003062306A20F056
:100FE00004003062FFF7E6FC054641F2883700BF97
:100FF000306A800720D5FFF7DDFC401BB8424FF078
:101000000300F5D907E700BF306A40F00400306202
:10101000306A40F001003062FFF7CCFC054641F237
:10102000883700BF306A800706D4FFF7C3FC401B37
:10103000B842F7D937E000BFB8F1000F7FF4D5AE62
:10104000F06920F08050F061CFE600BF306820F4F6
:1010500080303060306820F480203060FFF7AAFCD8
:10106000054600BF306880037FF59DAEFFF7A2FC08
:10107000401B64284FF00300F4D9CCE6306840F4FC
:1010800080203060306840F480303060FFF792FCA0
:10109000054600BF306880033FF585AEFFF78AFC48
:1010A000401B6428F6D9032002B0BDE8F08100BFE0
:1010B000206AB0F5803F05D17168A26821F4003143
:1010C000114371607168626A21F47411114308431D
:1010D000706001203866FFF76DFC044630688001BF
:1010E0003FF598AEFFF766FC001B02284FF00300A7
:1010F000F4D990E690F851007047000070B538B10F
:101100000446406A30B10020206104F1140007E079
:10111000012070BD6068B0F5827F03D004F11C002F
:10112000002101600026A66294F8510020B92046F3
:1011300084F8506000F038F8022084F8510094E8F8
:10114000071001F48271036802F4044223F04003A3
:101150000360236911440CF40062114403F002029D
:101160006369114403F00102A369E569114403F4C2
:101170000072114405F03802256A114405F080021E
:10118000A56A114305F4005211430160042101EAEC
:1011900013414160C16921F40061C16101206665AC
:1011A00084F85100304670BD70B586B040F600043A
:1011B000C4F20104006804F5205100268842049618
:1011C00002D006B070BD00BF41F21800C4F20200A8
:1011D000016802AD41F480510160016801F4805161
:1011E00001910199016841F00401016000682946FC
:1011F00000F0040001900198A020029002200390CA
:10120000032005902046FFF7BBFA4020CDE90206F7
:10121000204629460496FFF7B3FA06B070BD0000D9
:101220002DE9F04381B0044640681D461746B0F5ED
:10123000827F0E4601D1A068E0B394F850000128E7
:1012400004D1022001B0BDE8F08300BF4FF00109D6
:1012500084F85090FFF7AEFB94F85110012927D184
:101260008046002E4FF0010018BF002F00F0C9800B
:101270000420002184F851006165A663A787E787F1
:101280002163A186E186A2682068B2F5004F21643F
:1012900061644BD00168490653D5E168E08F0029AD
:1012A00057D0002800F08680681C1CD12DE000BFBC
:1012B0000220A6E0042084F8510020463146324640
:1012C0003B46009500F090F901B0BDE8F08300BF07
:1012D000C068A16B21F8020BA163E08F0138E087A1
:1012E000E08F002866D020688168C907F0D1FFF739
:1012F00061FBA0EB0800A842F2D3032081E000BF0D
:10130000FFF758FBE08F002854D020688168C90798
:10131000F6D0C068A16B21F8020BA163E08F013801
:10132000E087E08F0028F0D144E000BF016821F0A1
:1013300040010160016821F48041016001684906B3
:10134000ABD4016841F040010160E168E08F002901
:10135000A7D178B3681C0CD11CE000BF007BA16B47
:101360000870A06B0130A063E08F0138E087E08F48
:1013700000B320688168C907F0D1FFF71BFBA0EB21
:101380000800A842F3D303203BE000BFFFF712FBA5
:10139000E08F78B120688168C907F7D0007BA16B26
:1013A0000870A06B0130A063E08F0138E087E08F08
:1013B0000028EFD16068B0F5827F11D1A068B0F548
:1013C000004F02D0B0F5806F0AD12168B0F5806F70
:1013D0000A6822F040020A6002D12046012101E0A1
:1013E000204680212A46434601F00EFB28B1606D5D
:1013F00040F02000606520206065606D002818BF07
:101400000120002184F8519084F8501001B0BDE80B
:10141000F08300002DE9F04381B0044690F85000BD
:10142000012803D1022001B0BDE8F0834FF001098B
:101430001D4616460F4684F85090FFF7BBFA94F805
:101440005110012944D18046002F4FF0010018BFF0
:10145000002E00F0C0800320002184F85100616557
:101460002763A686E686A163A187E187A068216439
:10147000B0F5004F2068616407D1016821F0400198
:101480000160016841F4804101600168490603D4AC
:10149000016841F0400101606168731EE268B1FAC1
:1014A00081F1B3FA83F349095B09B2F5006F41EAB0
:1014B00003013BD131B137F8021BC1602763E08ED5
:1014C0000138E086E08E00286AD0681C0DD11CE04F
:1014D000022080E0216B31F8022BC2602163E08E94
:1014E0000138E086E08E00285AD02068816889079C
:1014F000F0D4FFF75FFAA0EB0800A842F2D338E07F
:10150000FFF758FAE08E00284AD0206881688907E2
:10151000F6D5216B31F8022BC2602163E08E0138D1
:10152000E086E08E0028F0D13AE000BF39B139788A
:101530000173206B01302063E08E0138E086E08E7D
:1015400070B3681C0BD11BE0216B09780173206B11
:1015500001302063E08E0138E086E08E00B3206821
:1015600081688907F0D4FFF725FAA0EB0800A842AC
:10157000F3D303202FE000BFFFF71CFAE08E78B111
:10158000206881688907F7D5216B09780173206B82
:1015900001302063E08E0138E086E08E0028EFD134
:1015A000204680212A46434601F02EFA28B1606D7C
:1015B00040F02000606520206065A06838B90020F8
:1015C00000902068C1680091806800900098606D6C
:1015D000002818BF0120002184F8519084F8501091
:1015E00001B0BDE8F08300002DE9F04381B004466E
:1015F00090F85000012803D1022001B0BDE8F0832B
:1016000001201E4615460F4684F85000FFF7D2F918
:1016100094F85110814601290CD06068B0F5827FA2
:1016200040F0A080A06800284FF0020008BF042905
:1016300040F09980002F4FF0010018BF002D00F0FE
:101640009280002E00F08F8094F851000021042831
:101650001CBF052084F851006165A563E687A68755
:101660002763E6862068A6862164616401684906CE
:1016700003D4016841F0400101606168731EE268B3
:10168000B1FA81F1B3FA83F3DDF8208049095B09EF
:10169000B2F5006F41EA03016ED131B137F8021B98
:1016A000C1602763E08E0138E086012518F1010052
:1016B00031D101E0FFF77EF9E08E18B9E08F002804
:1016C00000F0C2802068816889070CD5E18E51B195
:1016D000012D08D1216B002531F8022BC260216356
:1016E000E18E0139E1868168C907E3D0E18F0029E5
:1016F000E0D0C068A16B012521F8020BA163E08F47
:101700000138E087D6E700BFFFF754F9A0EB0900E6
:10171000404580F0A980E08E18B9E08F002800F0E5
:1017200093802068816889070CD5E18E51B1012D25
:1017300008D1216B002531F8022BC2602163E18EB4
:101740000139E1868168C907DED0E18F0029DBD04D
:10175000C068A16B012521F8020BA163E08F01385D
:10176000E087D1E70220012184F85110002184F89C
:10177000501001B0BDE8F08339B139780173206BA6
:1017800001302063E08E0138E086012518F1010068
:1017900032D101E0FFF70EF9E08E10B9E08F00289A
:1017A00052D02068816889070ED5E18E61B1012D84
:1017B0000AD1216B002509780173216B2068013162
:1017C0002163E18E0139E1868168C907E2D0E18FAA
:1017D0000029DFD0C068A16B01250870A06B013023
:1017E000A063E08F0138E087D4E700BFFFF7E2F89D
:1017F000A0EB0900404539D2E08E08B9E08F18B35C
:101800002068816889070ED5E18E61B1012D0AD16A
:10181000216B002509780173216B20680131216358
:10182000E18E0139E1868168C907DFD0E18F0029A7
:10183000DCD0C068A16B01250870A06B0130A063EB
:10184000E08F0138E087D1E72046802142464B46B1
:1018500001F0DAF860B1606D40F020006065202092
:10186000606501207FE700BF03207CE703207AE763
:10187000A06800284FF000007FF475AF0090216849
:10188000CA6800928968009100996CE7411E0020A7
:10189000B0EB116F1CBF012070474EF21002CEF268
:1018A000000251604EF62351CEF20001F0230B707E
:1018B000072190601160704770470000704700007A
:1018C00010B590F83C20012A4FF0020233D080F886
:1018D0003D200268D2F804E0D2F808C00C682EF06F
:1018E0007003234340F2FF74C4F20004A242536029
:1018F0000ADCB2F1804F13D040F20043C4F200037F
:101900009A420DD011E000BF42F60043C4F2010339
:101910009A4205D040F60003C4F200039A4204D173
:1019200049682CF08003194391600121002280F85E
:101930003D1080F83C20104610BD0000002804BF78
:101940000120704710B5044690F83D0028B90020EA
:1019500084F83C00204600F067F8022084F83D003F
:10196000206840F2FF730268C4F2000342F6004CA4
:101970009842C4F2010C15DCB0F1804F1AD040F24D
:101980000041C4F20001884214D0984218DCB0F142
:10199000804F1DD040F20041C4F20001884217D0B0
:1019A0001AE000BF604505D040F60001C4F2000116
:1019B0008842EAD1A16822F070020A439842E6DD2B
:1019C000604505D040F60001C4F20001884203D111
:1019D000216922F440720A43A36922F08001D4F8FD
:1019E00004E0E268194360450160C262C0F828E083
:1019F00002D16169CCF8301001214161002084F8E6
:101A0000461084F83E1084F83F1084F8401084F8A3
:101A1000411084F8421084F8431084F8441084F88C
:101A2000451084F83D1010BD80B582B00068B0F15B
:101A3000804F1CBF02B080BD41F21C00C4F2020006
:101A40000168002241F0010101600068002100F0FE
:101A50000100019001981C20FFF72EF81C2002B015
:101A6000BDE88040FFF714B880B590F83C20012A0B
:101A70004FF0020200F0BF8080F83D20D0F800C097
:101A80004FF67772DCF8083023EA0202CCF808201F
:101A90000B683F2B1CDD5F2B20DD602B50D0B3F596
:101AA000005F6DD0702B40F0A080D1E901E3C968E0
:101AB000DCF8082043EA0E0322F47F4243EA0121C6
:101AC0001143CCF80810DCF8081041F077018AE0E7
:101AD0001F2B29DC63B3102B2AD086E0402B63D068
:101AE000502B40F08280D1F804E0C968DCF8203047
:101AF000DCF8202022F00102CCF82020DCF81820AD
:101B000022F0F00242EA011123F00A0242EA0E0238
:101B1000CCF81810CCF82020DCF8081041F0570160
:101B200021F020015FE000BF202B01D0302B5CD1E1
:101B3000DCF8081021F07001194341F0070152E070
:101B4000D1F804E0C968DCF8203023F01003CCF8A9
:101B50002030DCF81830DCF8202023F4704322F029
:101B6000A00243EA013142EA0E12CCF81810CCF878
:101B70002020DCF8081041F0670121F0100132E06C
:101B8000D1E901E3C968DCF8082043EA0E0322F436
:101B90007F4243EA01211143CCF80810DCF8081019
:101BA00041F480411FE000BFD1F804E0C968DCF8CF
:101BB0002030DCF8202022F00102CCF82020DCF8D4
:101BC000182022F0F00242EA011123F00A0242EA50
:101BD0000E02CCF81810CCF82020DCF8081041F0E8
:101BE000470121F03001CCF808100121002280F8D3
:101BF0003D1080F83C20104680BD0000704700007A
:101C000010B5016804460869800744BFC8685FEAE8
:101C1000807039D40869400744BFC8685FEA4070E3
:101C20003ED40869000744BFC8685FEA007045D425
:101C30000869C00644BFC8685FEAC0604AD4086942
:101C4000C0071CBFC8685FEAC07051D108690006B0
:101C500044BFC8685FEA006052D40869400644BFC8
:101C6000C8685FEA406053D40869800646BFC86808
:101C70005FEA806010BD6FF0200220460A61BDE877
:101C80001040FFF71BBE00BF6FF00200086101208B
:101C900020778869800743D02046FFF7AFFF45E0F3
:101CA0006FF00400086102202077886910F4407FFB
:101CB00040D02046FFF7A2FF42E000BF6FF00800CF
:101CC000086104202077C86980073DD02046FFF7CF
:101CD00095FF3FE06FF01000086108202077C86989
:101CE00010F4407F3AD02046FFF788FF3CE000BF69
:101CF0006FF001000861204600F03EF82168A5E77A
:101D00006FF0800008612046FFF7D6FD2168A4E748
:101D10006FF040000861204600F030F82168A3E72A
:101D2000204600F025F8204600F024F82168002025
:101D300020776FE7204600F01BF8204600F01AF8E5
:101D40002168002020776CE7204600F011F820463B
:101D500000F010F821680020207769E7204600F0A5
:101D600007F8204600F006F821680020207766E793
:101D70007047000070470000704700007047000087
:101D80007047000070470000B0B582B00268054699
:101D90001068D368546900F02F01202903F0200156
:101DA00006D129B1284602B0BDE8B04000F0B0BE6F
:101DB0005FEA007C1EBF04F0010E03F4907414EB84
:101DC0000E0453D1296B012905D110F0100118BF61
:101DD00013F0100136D1010622D513F080011FD077
:101DE00095F83D0021283FD1A868B0F5805F03D168
:101DF0002869002800F0F880286A411C29620078D0
:101E00005060E88C01380104E8842DD1D06820F0BE
:101E10008000D060D06840F04000D06002B0B0BD1B
:101E2000400621D513F040001ED0D068202120F0BC
:101E30004000D060284685F83D1002B0BDE8B040B3
:101E400000F064BA00200190106801905068019081
:101E500001985069400611D4A88DE98DEB8D002BB7
:101E600018BF884240F0A68002B0B0BDC40718BFBA
:101E700013F480732CD1430730D436E0A86B01688B
:101E80004B689CB2002CEFD0A98D8C42ECD2EB8534
:101E90008369202B17D0D16821F48071D1605169FA
:101EA00021F001015161516921F04001516120216E
:101EB00085F83E1000212963D16821F01001D1601E
:101EC000FEF7C2FBA98DE88D081A81B2284685E08D
:101ED0002B6C43F001032B64430706D5BEF1000FC2
:101EE00003D02B6C43F002032B64830706D5BEF1AD
:101EF000000F03D02B6C43F004032B64BCF1000FE4
:101F000009D541EA0E03B3FA83F35B0903D12B6CC5
:101F100043F008032B642B6C002BA5D010F020009D
:101F200018BF002903D0284600F0F2FD2A68506946
:101F3000296C00F0400001F0080140182CD0D06856
:101F400020F49070D060506920F001005061286B3F
:101F5000012803D1D06820F01000D060202085F83F
:101F60003E0000202863506940061DD5506920F0CE
:101F700040005061A86BB8B142F60531C0F60001CF
:101F80004163FEF785FB00283FF46EAFA86B416B01
:101F900002B0BDE8B04008472846FFF7F3FE002036
:101FA000286402B0B0BD00BF284602B0BDE8B04012
:101FB000FFF7E8BED368401A23F49073D3605369E7
:101FC00081B223F001035361202385F83E300023C2
:101FD0002B63D368284623F01003D36002B0BDE81A
:101FE000B040FFF7CDBE00BF286A30F8021B6FF388
:101FF0005F215160286204E7002804BF0120704778
:1020000010B5044690F83D0028B9002084F83C0043
:10201000204600F061F8242084F83D002068D4E9CF
:102020000212C36823F40053C360036923F44053CE
:102030001A430261D4E904231143C268194341F2EF
:102040000C639A431143C1604169A26921F4407154
:10205000114343F60002C4F201029042416103D0F1
:10206000FEF746FE02E000BFFEF756FE6268192149
:1020700048439100B0FBF1F048F21F51C5F2EB115B
:10208000A0FB01235A094FF69C73C0F6FF7302FBB5
:102090000300322303EB0010A0FB0101F02303EA4D
:1020A0005113206803EB0212C1F343111144816004
:1020B000016921F490410161416921F02A014161E6
:1020C000C16841F40051C16000202021206484F8DF
:1020D0003D1084F83E1010BD70B586B040F6000487
:1020E000C4F20104006804F54051002688420496B9
:1020F00002D006B070BD00BF41F21800C4F2020069
:10210000016802AD41F480410160016801F4804141
:1021100001910199016841F00401016000682946BC
:1021200000F00400019001984FF40070029002202A
:102130000390032005902046FEF722FB4FF48060B9
:10214000CDE90206204629460496FEF719FB252014
:1021500000210022FEF7B0FC2520FEF799FC06B016
:1021600070BD0000704700002DE9F041044690F872
:102170003D0020280ED10D4600294FF0010000F04F
:102180008E801646002A08BFBDE8F08194F83C0016
:10219000012803D10220BDE8F08100BF012084F8AE
:1021A0003C00002020642120984684F83D00FEF782
:1021B00001FCA684E684A1680646B1F5805F03D1E0
:1021C0002069002800F0A0802F460025002084F818
:1021D0003C00E08CE0B118F101001BD0B8F1000F19
:1021E00060D120680BE000BF35F8021B00276FF3B9
:1021F0005F214160E18C0139E184E18C51B30168D8
:1022000009066DD5002FEFD017F8011BF1E700BFCD
:1022100020681FE0206802E00168090609D401680F
:10222000090606D4016809065CBF01685FEA01611E
:10223000F2D51FB117F8011B05E000BF35F8021BEE
:1022400000276FF35F214160E18C0139E184E18C6B
:102250000029E4D1016849061DD4B8F1000F3FD030
:1022600018F101010ED10168490614D4016849062C
:102270005CBF01685FEA41610DD401684906F2D58F
:1022800009E000BFFEF796FB811B2068414527D877
:1022900000684006F6D5202084F83D000020BDE807
:1022A000F08100BF206800BF0168090606D4FEF770
:1022B00081FB811B20684145F6D911E017B117F861
:1022C000011B04E035F8021B00276FF35F2141601A
:1022D000E18C0139E184E18C0029E5D1BAE700BF46
:1022E000C16821F4D071C160416921F001014161EF
:1022F000202084F83D0084F83E00002084F83C0053
:102300000320BDE8F08100BF00275FE770470000B1
:10231000FEE7000070B582B00446164641F0800228
:102320000068A1888DF8072000221D46FEF73CFBBF
:10233000A0690DF1070101224FF4FA63FFF76AF873
:10234000A069FEF7D7FE0128FAD1A06931462A46D6
:102350004FF4FA63FFF75EF8A069FEF7CBFE0128A1
:10236000FAD12068A1880122FEF71EFB02B070BDE1
:102370002DE9F04383B001250DF10A010DF10B03A6
:10238000012204468DF80A50009500F0A3F99DF84B
:102390000B00002700F0F8004FF081088DF80B00CB
:1023A0000DF10A010DF10B0320460122E7618DF8C2
:1023B0000A80009500F0F6FA0A20FEF7BFF90DF149
:1023C0000A010DF10B03204601228DF80A500095F9
:1023D00000F080F99DF80B600A20FEF7AFF946F097
:1023E00080008DF80B000DF10A010DF10B03204662
:1023F00001228DF80A80009500F0D4FA6420FEF7DF
:102400009DF9266A8621B0088DF80A108DF80B0018
:102410000DF10A010DF10B0320460122009500F099
:10242000C1FA0520FEF78AF9B00187218DF80A105C
:102430008DF80B000DF10A010DF10B03204601226E
:10244000009500F0AFFA0520FEF778F988208DF8A6
:102450000A000DF10A010DF10B03204601228DF84F
:102460000B70009500F09EFA0520FEF767F994F8CE
:102470002A0089218DF80A108DF80B000DF10A0150
:102480000DF10B0320460122009500F08BFA0A2083
:10249000FEF754F994F82B00CD222D2898BF2D205B
:1024A000F02828BFF020A0F12D01C9B2514300F15E
:1024B0001E024CF6CD435A43D20C792838BF8A0A03
:1024C00002F120008B218DF80A108DF80B000DF120
:1024D0000A010DF10B0320460122009500F062FA7B
:1024E0000A20FEF72BF98C208DF80A0023208DF8A6
:1024F0000B000DF10A010DF10B032046012200959E
:1025000000F050FA1E260DF10A010DF10B032046D2
:1025100001228DF80A60009500F0DCF89DF80B00B0
:102520004FF09E0940F007008DF80B000DF10A01F5
:102530000DF10B03204601228DF80A90009500F062
:1025400031FA0A20FEF7FAF894F824700DF10A0126
:102550000C2FA8BF0C270DF10B0320460122072FDB
:10256000D8BF07278DF80A60009500F0B3F89DF8F2
:102570000B600A20FEF7E2F806F00F0040EA0710B1
:102580008DF80B000DF10A010DF10B03204601221D
:102590008DF80A90009500F005FA0A20FEF7CEF8B3
:1025A0009F208DF80A00FF208DF80B000DF10A0125
:1025B0000DF10B0320460122009500F0F3F994F889
:1025C000260094F82510400000EB01109D218DF8A5
:1025D0000A108DF80B000DF10A010DF10B032046D6
:1025E0000122009500F0DEF994F82900A0218DF871
:1025F0000A108DF80B000DF10A010DF10B032046B6
:102600000122009500F0CEF994F82800A1218DF860
:102610000A108DF80B000DF10A010DF10B03204695
:102620000122009500F0BEF940208DF80A000DF15E
:102630000A010DF10B0320460122009500F04AF833
:102640009DF80B00C02140F03F008DF80A108DF876
:102650000B000DF10A010DF10B032046012200953C
:1026600000F0A0F90DF10A010DF10B032046012243
:102670008DF80A50009500F02DF89DF80B000DF133
:102680000A0100F0F80001308DF80B000DF10B038A
:1026900020460122E5618DF80A80009500F082F95C
:1026A0000A20E561FEF74AF842208DF80A000DF194
:1026B0000A010DF10B0320460122009500F00AF8F3
:1026C0009DF80B104FF4CA70122908BFC82003B040
:1026D000BDE8F0832DE9F04104461746A288006862
:1026E000069E0D46114600229846FEF75DF9A06948
:1026F00029463A464FF4FA63FEF78CFEA069FEF7CE
:10270000F9FC0128FAD1A069414632464FF4FA6338
:10271000FEF786FDA069FEF7EDFC0128FAD12068DE
:10272000A1880122BDE8F041FEF73EB92DE9F0474E
:1027300082B01D4616460F46D0F81C804FF00109A6
:102740000DF106010DF10703012204468DF80690F4
:10275000CDF80090FFF7BEFF9DF807004FF0810A0B
:1027600000F0F80001308DF807000DF106010DF1C1
:10277000070320460122C4F81C908DF806A0CDF86E
:10278000009000F00FF90E208DF806000DF1060103
:102790000DF1070320460122CDF80090FFF79AFFC4
:1027A0009DF807008D218DF806108DF807000DF1BA
:1027B00006010DF1070320460122CDF8009000F03C
:1027C000F1F8A2208DF806000DF106010DF10703C6
:1027D000204601228DF80760CDF8009000F0E2F865
:1027E000204600213A463346FFF794FD0DF10601DD
:1027F0000DF10703204601228DF80690CDF80090D8
:10280000FFF768FF9DF80700032100F0F800033090
:10281000E1618DF807000DF106010DF10703204677
:1028200001228DF806A0CDF8009000F0BBF84FF023
:10283000120A0DF106010DF10703204601228DF861
:1028400006A0CDF80090FFF745FF9DF807000007B0
:1028500018D40DF106060DF1070700BF013D28044D
:102860003CD00120FDF76AFF2046314601223B465D
:102870008DF806A0CDF80090FFF72CFF9DF807001B
:102880000007EBD592208DF80600FF208DF8070099
:102890000DF106010DF1070320460122CDF800904D
:1028A00000F080F80DF106010DF10703204601222A
:1028B0008DF80690CDF80090FFF70CFF9DF807000B
:1028C000B8F1060F37D8DFE808F005253629362D90
:1028D000310000BF00F0F8002BE000BF01250DF132
:1028E00006010DF10703204601228DF806500095E0
:1028F000FFF7F0FE9DF80700B8F1060F3FD8DFE8BC
:1029000008F0052D3E313E35390000BF00F0F800DB
:1029100033E000BF00F0F80001300AE000F0F800FA
:10292000033006E000F0F800053002E000F0F800A7
:102930000630C4F81C8081218DF806108DF8070040
:1029400001250DF106010DF1070320460122009536
:1029500000F028F8284602B0BDE8F08700F0F80043
:1029600001300AE000F0F800033006E000F0F80063
:10297000053002E000F0F8000630C4F81C80812128
:102980008DF806108DF807000DF106010DF1070313
:1029900020460122009500F005F80025284602B0E7
:1029A000BDE8F0872DE9F04104461746A28800688B
:1029B000069E0D46114600229846FDF7F5FFA069D8
:1029C00029463A464FF4FA63FEF724FDA069FEF764
:1029D00091FB0128FAD1A069414632464FF4FA63CF
:1029E000FEF718FDA069FEF785FB0128FAD12068E3
:1029F000A1880122BDE8F041FDF7D6BFFEE7000047
:102A0000FEE70000704700002DE9F04182B01E464D
:102A100090460D460446FDF7CDFF301A00EB08073F
:102A2000FDF7C8FF40F20801C2F200010968C1F3D6
:102A3000CB317943019121688A682A40AA4227D183
:102A4000064618F101001FD0FDF7B4FF801BB84205
:102A500022D2019801990028A1F101010191216878
:102A6000896808BF074601EA0500A842ECD00FE0DC
:102A700088682840A8420BD188682840A84207D11E
:102A800088682840A84203D188682840A842EFD02F
:102A9000002002B0BDE8F081D4E900014268B1F540
:102AA000827F22F0E00242600AD1A168B1F5004FB6
:102AB00002D0B1F5806F03D1016821F040010160BF
:102AC000A16AB1F5005F07D1016821F400510160EE
:102AD000016841F400510160012084F85100002098
:102AE00084F85000032002B0BDE8F0817047000078
:102AF000FDF766BF7047000040F22410C2F20000EC
:102B0000FFF77EB8406A0021C185C184FFF73AB95A
:102B100081B090F83E10222921D183680246B3F596
:102B2000805F09D152F8281F52F8183C002B3FD083
:102B300003685B680AE000BF52F8281F13B90369F5
:102B4000002BF5D003685B6803F07F030B701168FE
:102B500001311160C18D01390A04C18502D001B073
:102B6000704700BF0168CA6822F02002CA60CA68C4
:102B700022F48072CA604A6922F001024A6120226E
:102B800080F83E20026B012A1AD100220263CB6832
:102B900023F01003CB600B68DB0605D500920A68B2
:102BA0000092496800910099818D01B0FFF7E8B863
:102BB000026852686FF35F2221F8022B8162C9E735
:102BC00001B0FFF7CFBA000040F26C10C2F2000073
:102BD000FFF7DAB8FEE7000092B0FDF7FFFE002431
:102BE0000120CDE90544CDE90344009004904FF461
:102BF000E0104FF48031022509906846CDE90114B8
:102C0000CDE90751FEF79CF820B1EFF3108072B6C2
:102C1000FEE700BF0F20CDE90C054FF480670CA83C
:102C200002210E94CDE90F74FDF782FF20B1EFF37E
:102C3000108072B6FEE700BF41F21800C4F2020035
:102C4000016840F6004441F0200101600168C4F2CF
:102C5000010401F02001009100990168012241F076
:102C6000040101600168012501F00401009100994F
:102C7000016841F0080101600068032100F00800CC
:102C8000009000982046FDF78FFE20464FF48051BB
:102C900000220026FDF788FE41F203008DE8610066
:102CA00002206D46039020462946FDF769FD00206D
:102CB000C1F21100CDE90106204629460097FDF733
:102CC0005FFD282000210022FDF7F6FE2820FDF7F9
:102CD000DFFE40F2CC0504F51050C2F200054FF4BF
:102CE000827185E843000A204FF400721023C5E981
:102CF0000A602846C5E90366C5E90562EB61C5E9D6
:102D00000866FEF7FBF928B1EFF3108072B600BF3A
:102D1000FEE700BF40F26C1004F53051C2F2000033
:102D20000C234FF4E13280E84600C0E90366C0E9B5
:102D30000536C661FFF760F920B1EFF3108072B677
:102D4000FEE700BF40F224100021C2F200004FF065
:102D5000804247234FF6FF770391CDE90111CDE97A
:102D60000C11C0E90023C0E9021701618161FEF77F
:102D7000E5FD28B1EFF3108072B600BFFEE700BF9B
:102D80004FF48050009040F22410C2F200006946D7
:102D9000FEF76AFE20B1EFF3108072B6FEE700BFC7
:102DA00040F22410C2F200000CA9FEF789FD28B100
:102DB000EFF3108072B600BFFEE700BFE846404662
:102DC00000F06CF840F27009DDE900C0DDE9056152
:102DD000C2F2000902AFC9F83400C9E91161DDE9A6
:102DE00009018CCFDDE907EAC9E915010121C9F81C
:102DF0003820C9F83C30C9F84070C9E913EA4846A0
:102E0000A9F83410022140F830CFA9F83C104FF453
:102E100080610460C9F83840C9F84040A9F84410FE
:102E2000C9F84850FFF7A4FA40F26C1AC2F2000A3F
:102E300089F800005046494601224FF6FF73FFF71C
:102E400093F94FF48050C9E9074009F11C0400BF11
:102E500040462146FDF7F8F9DDE90067384600F005
:102E60002BF84D4605F8100F304645E9026700F093
:102E700023F868705046294602224FF6FF73FFF789
:102E800073F905F1200029460A224FF4FA73FFF77F
:102E90004DFC41F28830FDF751FCD9E740F2B11109
:102EA000016240F207718184012180F82610082117
:102EB000C6F2FF418162704741000B0ED3F19E02C2
:102EC00008D950F400034FEA032323FA02F048BF65
:102ED0004042704710B500F0B8F800BF4992248016
:102EE000002070476FF0004282EA20007047000027
:102EF00010F0004148BF4042B0FA80F310FA03F2EC
:102F0000C3F19D030BD051EAC35101EB12205306CC
:102F100038BF704700F1010008BF20F00100704782
:102F2000B0FA80F310FA03F2C3F19D030AD0D90579
:102F300001EB1220530638BF704700F1010008BFB3
:102F400020F00100704700004FF47F0C1CEAD01203
:102F50001EBF1CEAD11392EA0C0F93EA0C0F00F08B
:102F6000478090EA010F48BF42F480724FF0004C56
:102F70004CEA00204CEA012102EB0302A0FB011302
:102F8000A2F50002002918BF43F001035B0028BF2F
:102F90004FEA330342EB22425FEA132C4CEBC25060
:102FA0002EBFBCEB436FB2F57C0F70474FEA036C4A
:102FB000BCF1004F08BF20F00100B2F57C0F38BF14
:102FC00070470BD582F0FF0212F5803FC8BF7047F3
:102FD00000F1C040D8BF00F00040704700F5000C81
:102FE0005FEA4C0C48BF7047B0F1C04000F073B8C6
:102FF0000CEAD11390EA010F48BF42F48072624597
:1030000038BF634504D280EA010000F000407047F9
:1030100010B500F01AF800BF8900013E00F007B8B3
:1030200000F009B85FEA410C5FEA1C6C08D080EA46
:10303000010000F050B85FEA400C5FEA1C6CF6D16A
:103040004FF00040A0F5800070470EF1020E2EF008
:10305000030E5EF8044B244204D44FEA4102B2F15D
:103060007F4F11D84FEA4003B3F17F4F0CD80ED1F8
:103070004FEAD07C0CEB4C0C0CF1020CB2F17F4F00
:1030800008BF4CEBD17C04E04FF0080C01E04FEAA4
:10309000D17C0CEB4C0324FA03F404F00704B4F1E4
:1030A000040C06D20EEB840CBDE810404CF0010C71
:1030B0006047DFE80CF0070802024FF00040A0F57F
:1030C000800010BD0846420018BFD2F1807288BF50
:1030D00000F0004010BDFF2141EAD050C00570470C
:1030E00001020000000000000000010203040607C6
:1030F000080900000000010203040203040506079A
:1031000008090A0B0C0D0E0F1010000030310008DA
:1031100000000020100000002801000840310008D5
:1031200010000020A8070000440100080000000073
:1031300001000000100000000024F4000000000066
:04000005080000ED02
:00000001FF
